{
  "contractName": "DocuNet",
  "abi": [
    {
      "anonymous": false,
      "inputs": [
        {
          "indexed": false,
          "internalType": "uint256",
          "name": "Filecount",
          "type": "uint256"
        },
        {
          "indexed": false,
          "internalType": "string",
          "name": "hash",
          "type": "string"
        },
        {
          "indexed": false,
          "internalType": "string",
          "name": "description",
          "type": "string"
        },
        {
          "indexed": false,
          "internalType": "address",
          "name": "owner",
          "type": "address"
        }
      ],
      "name": "FileCreated",
      "type": "event"
    },
    {
      "anonymous": false,
      "inputs": [
        {
          "indexed": false,
          "internalType": "string",
          "name": "response",
          "type": "string"
        }
      ],
      "name": "inboxResponse",
      "type": "event"
    },
    {
      "anonymous": false,
      "inputs": [
        {
          "indexed": false,
          "internalType": "string",
          "name": "_ipfsHash",
          "type": "string"
        },
        {
          "indexed": false,
          "internalType": "address payable",
          "name": "_address",
          "type": "address"
        }
      ],
      "name": "ipfsSent",
      "type": "event"
    },
    {
      "constant": true,
      "inputs": [
        {
          "internalType": "uint256",
          "name": "",
          "type": "uint256"
        }
      ],
      "name": "Records",
      "outputs": [
        {
          "internalType": "address",
          "name": "",
          "type": "address"
        }
      ],
      "payable": false,
      "stateMutability": "view",
      "type": "function"
    },
    {
      "constant": true,
      "inputs": [
        {
          "internalType": "uint256",
          "name": "",
          "type": "uint256"
        }
      ],
      "name": "addressValues",
      "outputs": [
        {
          "internalType": "address",
          "name": "",
          "type": "address"
        }
      ],
      "payable": false,
      "stateMutability": "view",
      "type": "function"
    },
    {
      "constant": true,
      "inputs": [
        {
          "internalType": "address",
          "name": "",
          "type": "address"
        }
      ],
      "name": "fileCount",
      "outputs": [
        {
          "internalType": "uint256",
          "name": "",
          "type": "uint256"
        }
      ],
      "payable": false,
      "stateMutability": "view",
      "type": "function"
    },
    {
      "constant": true,
      "inputs": [
        {
          "internalType": "address",
          "name": "",
          "type": "address"
        }
      ],
      "name": "ipfsInbox",
      "outputs": [
        {
          "internalType": "string",
          "name": "",
          "type": "string"
        }
      ],
      "payable": false,
      "stateMutability": "view",
      "type": "function"
    },
    {
      "constant": true,
      "inputs": [
        {
          "internalType": "address",
          "name": "",
          "type": "address"
        }
      ],
      "name": "mappedStudents",
      "outputs": [
        {
          "internalType": "address",
          "name": "",
          "type": "address"
        }
      ],
      "payable": false,
      "stateMutability": "view",
      "type": "function"
    },
    {
      "constant": true,
      "inputs": [],
      "name": "owner",
      "outputs": [
        {
          "internalType": "address",
          "name": "",
          "type": "address"
        }
      ],
      "payable": false,
      "stateMutability": "view",
      "type": "function"
    },
    {
      "constant": true,
      "inputs": [
        {
          "internalType": "uint256",
          "name": "",
          "type": "uint256"
        }
      ],
      "name": "schoolStudent",
      "outputs": [
        {
          "internalType": "address",
          "name": "",
          "type": "address"
        }
      ],
      "payable": false,
      "stateMutability": "view",
      "type": "function"
    },
    {
      "constant": true,
      "inputs": [
        {
          "internalType": "uint256",
          "name": "",
          "type": "uint256"
        }
      ],
      "name": "schoolStudents",
      "outputs": [
        {
          "internalType": "address payable",
          "name": "",
          "type": "address"
        }
      ],
      "payable": false,
      "stateMutability": "view",
      "type": "function"
    },
    {
      "constant": true,
      "inputs": [
        {
          "internalType": "address",
          "name": "",
          "type": "address"
        }
      ],
      "name": "users",
      "outputs": [
        {
          "internalType": "address",
          "name": "school",
          "type": "address"
        },
        {
          "internalType": "string",
          "name": "name",
          "type": "string"
        },
        {
          "internalType": "string",
          "name": "firstname",
          "type": "string"
        },
        {
          "internalType": "string",
          "name": "lastname",
          "type": "string"
        },
        {
          "internalType": "string",
          "name": "email",
          "type": "string"
        },
        {
          "internalType": "bool",
          "name": "set",
          "type": "bool"
        }
      ],
      "payable": false,
      "stateMutability": "view",
      "type": "function"
    },
    {
      "constant": false,
      "inputs": [
        {
          "internalType": "string",
          "name": "_fileHash",
          "type": "string"
        },
        {
          "internalType": "string",
          "name": "_description",
          "type": "string"
        }
      ],
      "name": "uploadFile",
      "outputs": [],
      "payable": false,
      "stateMutability": "nonpayable",
      "type": "function"
    },
    {
      "constant": true,
      "inputs": [
        {
          "internalType": "address",
          "name": "_owneraddress",
          "type": "address"
        },
        {
          "internalType": "uint256",
          "name": "_filenumber",
          "type": "uint256"
        }
      ],
      "name": "getFile",
      "outputs": [
        {
          "internalType": "string",
          "name": "",
          "type": "string"
        }
      ],
      "payable": false,
      "stateMutability": "view",
      "type": "function"
    },
    {
      "constant": false,
      "inputs": [
        {
          "internalType": "address payable",
          "name": "_address",
          "type": "address"
        },
        {
          "internalType": "string",
          "name": "_ipfsHash",
          "type": "string"
        }
      ],
      "name": "sendIPFS",
      "outputs": [],
      "payable": false,
      "stateMutability": "nonpayable",
      "type": "function"
    },
    {
      "constant": false,
      "inputs": [],
      "name": "checkInbox",
      "outputs": [],
      "payable": false,
      "stateMutability": "nonpayable",
      "type": "function"
    },
    {
      "constant": false,
      "inputs": [
        {
          "internalType": "address",
          "name": "_address",
          "type": "address"
        }
      ],
      "name": "getHash",
      "outputs": [],
      "payable": false,
      "stateMutability": "nonpayable",
      "type": "function"
    },
    {
      "constant": false,
      "inputs": [
        {
          "internalType": "address",
          "name": "_schoolAddress",
          "type": "address"
        },
        {
          "internalType": "address",
          "name": "_studentAddress",
          "type": "address"
        },
        {
          "internalType": "string",
          "name": "_studentName",
          "type": "string"
        },
        {
          "internalType": "string",
          "name": "_firstname",
          "type": "string"
        },
        {
          "internalType": "string",
          "name": "_lastname",
          "type": "string"
        },
        {
          "internalType": "string",
          "name": "_email",
          "type": "string"
        }
      ],
      "name": "addStudent",
      "outputs": [],
      "payable": false,
      "stateMutability": "nonpayable",
      "type": "function"
    },
    {
      "constant": true,
      "inputs": [
        {
          "internalType": "address",
          "name": "_stuAddress",
          "type": "address"
        }
      ],
      "name": "hasStudent",
      "outputs": [
        {
          "internalType": "bool",
          "name": "",
          "type": "bool"
        }
      ],
      "payable": false,
      "stateMutability": "view",
      "type": "function"
    },
    {
      "constant": true,
      "inputs": [
        {
          "internalType": "address",
          "name": "_stuAddress",
          "type": "address"
        }
      ],
      "name": "getStudent",
      "outputs": [
        {
          "internalType": "string",
          "name": "",
          "type": "string"
        }
      ],
      "payable": false,
      "stateMutability": "view",
      "type": "function"
    },
    {
      "constant": false,
      "inputs": [
        {
          "internalType": "address",
          "name": "_schoolAddress",
          "type": "address"
        }
      ],
      "name": "getStudents",
      "outputs": [
        {
          "internalType": "address[]",
          "name": "",
          "type": "address[]"
        }
      ],
      "payable": false,
      "stateMutability": "nonpayable",
      "type": "function"
    },
    {
      "constant": false,
      "inputs": [
        {
          "internalType": "address",
          "name": "_schoolAddress",
          "type": "address"
        }
      ],
      "name": "studentCount",
      "outputs": [
        {
          "internalType": "uint256",
          "name": "",
          "type": "uint256"
        }
      ],
      "payable": false,
      "stateMutability": "nonpayable",
      "type": "function"
    },
    {
      "constant": false,
      "inputs": [
        {
          "internalType": "address",
          "name": "_schoolAddress",
          "type": "address"
        },
        {
          "internalType": "address",
          "name": "_userAddress",
          "type": "address"
        },
        {
          "internalType": "string",
          "name": "_userName",
          "type": "string"
        },
        {
          "internalType": "string",
          "name": "_firstname",
          "type": "string"
        },
        {
          "internalType": "string",
          "name": "_lastname",
          "type": "string"
        },
        {
          "internalType": "string",
          "name": "_email",
          "type": "string"
        }
      ],
      "name": "createUser",
      "outputs": [],
      "payable": false,
      "stateMutability": "nonpayable",
      "type": "function"
    },
    {
      "constant": true,
      "inputs": [
        {
          "internalType": "address",
          "name": "_userAddress",
          "type": "address"
        }
      ],
      "name": "getuserDataName",
      "outputs": [
        {
          "internalType": "string",
          "name": "",
          "type": "string"
        }
      ],
      "payable": false,
      "stateMutability": "view",
      "type": "function"
    }
  ],
  "bytecode": "0x6080604052600280546001600160a01b0319163317905534801561002257600080fd5b50611eff806100326000396000f3fe608060405234801561001057600080fd5b50600436106101375760003560e01c80636b7b44d7116100b8578063996d50bf1161007c578063996d50bf146108a9578063a87430ba146109d2578063aa8e358d14610bc6578063bfeb163314610c3c578063c3ed8db314610c68578063d395a3cc14610c8e57610137565b80636b7b44d7146107695780636bfc70e21461078f5780638da5cb5b146108435780638db57a321461084b5780639431640a1461088357610137565b80634a982b35116100ff5780634a982b351461028f5780635c23d56f146104db578063658cb23f146104e357806366da29a21461072f57806368bec2711461074c57610137565b806304515e2c1461013c57806313efb074146101755780631da0b8fc146102105780632b01b5f0146102385780632fe555d314610272575b600080fd5b6101596004803603602081101561015257600080fd5b5035610cb4565b604080516001600160a01b039092168252519081900360200190f35b61019b6004803603602081101561018b57600080fd5b50356001600160a01b0316610cdb565b6040805160208082528351818301528351919283929083019185019080838360005b838110156101d55781810151838201526020016101bd565b50505050905090810190601f1680156102025780820380516001836020036101000a031916815260200191505b509250505060405180910390f35b6102366004803603602081101561022657600080fd5b50356001600160a01b0316610d8f565b005b61025e6004803603602081101561024e57600080fd5b50356001600160a01b0316610ed2565b604080519115158252519081900360200190f35b6101596004803603602081101561028857600080fd5b5035610f0b565b610236600480360360c08110156102a557600080fd5b6001600160a01b038235811692602081013590911691810190606081016040820135600160201b8111156102d857600080fd5b8201836020820111156102ea57600080fd5b803590602001918460018302840111600160201b8311171561030b57600080fd5b91908080601f0160208091040260200160405190810160405280939291908181526020018383808284376000920191909152509295949360208101935035915050600160201b81111561035d57600080fd5b82018360208201111561036f57600080fd5b803590602001918460018302840111600160201b8311171561039057600080fd5b91908080601f0160208091040260200160405190810160405280939291908181526020018383808284376000920191909152509295949360208101935035915050600160201b8111156103e257600080fd5b8201836020820111156103f457600080fd5b803590602001918460018302840111600160201b8311171561041557600080fd5b91908080601f0160208091040260200160405190810160405280939291908181526020018383808284376000920191909152509295949360208101935035915050600160201b81111561046757600080fd5b82018360208201111561047957600080fd5b803590602001918460018302840111600160201b8311171561049a57600080fd5b91908080601f016020809104026020016040519081016040528093929190818152602001838380828437600092019190915250929550610f18945050505050565b610236611035565b610236600480360360c08110156104f957600080fd5b6001600160a01b038235811692602081013590911691810190606081016040820135600160201b81111561052c57600080fd5b82018360208201111561053e57600080fd5b803590602001918460018302840111600160201b8311171561055f57600080fd5b91908080601f0160208091040260200160405190810160405280939291908181526020018383808284376000920191909152509295949360208101935035915050600160201b8111156105b157600080fd5b8201836020820111156105c357600080fd5b803590602001918460018302840111600160201b831117156105e457600080fd5b91908080601f0160208091040260200160405190810160405280939291908181526020018383808284376000920191909152509295949360208101935035915050600160201b81111561063657600080fd5b82018360208201111561064857600080fd5b803590602001918460018302840111600160201b8311171561066957600080fd5b91908080601f0160208091040260200160405190810160405280939291908181526020018383808284376000920191909152509295949360208101935035915050600160201b8111156106bb57600080fd5b8201836020820111156106cd57600080fd5b803590602001918460018302840111600160201b831117156106ee57600080fd5b91908080601f01602080910402602001604051908101604052809392919081815260200183838082843760009201919091525092955061123e945050505050565b6101596004803603602081101561074557600080fd5b50356113c4565b6101596004803603602081101561076257600080fd5b50356113d1565b61019b6004803603602081101561077f57600080fd5b50356001600160a01b03166113de565b610236600480360360408110156107a557600080fd5b6001600160a01b038235169190810190604081016020820135600160201b8111156107cf57600080fd5b8201836020820111156107e157600080fd5b803590602001918460018302840111600160201b8311171561080257600080fd5b91908080601f01602080910402602001604051908101604052809392919081815260200183838082843760009201919091525092955061148e945050505050565b610159611623565b6108716004803603602081101561086157600080fd5b50356001600160a01b0316611632565b60408051918252519081900360200190f35b6101596004803603602081101561089957600080fd5b50356001600160a01b0316611644565b610236600480360360408110156108bf57600080fd5b810190602081018135600160201b8111156108d957600080fd5b8201836020820111156108eb57600080fd5b803590602001918460018302840111600160201b8311171561090c57600080fd5b91908080601f0160208091040260200160405190810160405280939291908181526020018383808284376000920191909152509295949360208101935035915050600160201b81111561095e57600080fd5b82018360208201111561097057600080fd5b803590602001918460018302840111600160201b8311171561099157600080fd5b91908080601f01602080910402602001604051908101604052809392919081815260200183838082843760009201919091525092955061165f945050505050565b6109f8600480360360208110156109e857600080fd5b50356001600160a01b0316611840565b60405180876001600160a01b03166001600160a01b03168152602001806020018060200180602001806020018615151515815260200185810385528a818151815260200191508051906020019080838360005b83811015610a63578181015183820152602001610a4b565b50505050905090810190601f168015610a905780820380516001836020036101000a031916815260200191505b5085810384528951815289516020918201918b019080838360005b83811015610ac3578181015183820152602001610aab565b50505050905090810190601f168015610af05780820380516001836020036101000a031916815260200191505b5085810383528851815288516020918201918a019080838360005b83811015610b23578181015183820152602001610b0b565b50505050905090810190601f168015610b505780820380516001836020036101000a031916815260200191505b50858103825287518152875160209182019189019080838360005b83811015610b83578181015183820152602001610b6b565b50505050905090810190601f168015610bb05780820380516001836020036101000a031916815260200191505b509a505050505050505050505060405180910390f35b610bec60048036036020811015610bdc57600080fd5b50356001600160a01b0316611aaf565b60408051602080825283518183015283519192839290830191858101910280838360005b83811015610c28578181015183820152602001610c10565b505050509050019250505060405180910390f35b61019b60048036036040811015610c5257600080fd5b506001600160a01b038135169060200135611bcc565b61087160048036036020811015610c7e57600080fd5b50356001600160a01b0316611c84565b61019b60048036036020811015610ca457600080fd5b50356001600160a01b0316611d47565b60068181548110610cc157fe5b6000918252602090912001546001600160a01b0316905081565b6001600160a01b0381166000908152600a6020908152604091829020600190810180548451600293821615610100026000190190911692909204601f81018490048402830184019094528382526060939092839190830182828015610d815780601f10610d5657610100808354040283529160200191610d81565b820191906000526020600020905b815481529060010190602001808311610d6457829003601f168201915b50505050509150505b919050565b6001600160a01b03811660009081526003602090815260409182902080548351601f6002600019610100600186161502019093169290920491820184900484028101840190945280845260609392830182828015610e2e5780601f10610e0357610100808354040283529160200191610e2e565b820191906000526020600020905b815481529060010190602001808311610e1157829003601f168201915b505050505090507f2974ec83b4de9f76155d0c3e88bd3c0645c56c1795807f37d3f9e95caafeee57816040518080602001828103825283818151815260200191508051906020019080838360005b83811015610e94578181015183820152602001610e7c565b50505050905090810190601f168015610ec15780820380516001836020036101000a031916815260200191505b509250505060405180910390a15050565b6001600160a01b0381166000908152600a602052604081206005015460ff16151560011415610f0357506001610d8a565b506000610d8a565b60088181548110610cc157fe5b6001600160a01b0385166000908152600a60205260409020600581015460ff1615610f4257600080fd5b6040805160c0810182526001600160a01b03898116825260208083018981528385018990526060840188905260808401879052600160a085018190528b84166000908152600a845295909520845181546001600160a01b031916941693909317835551805193949293610fbc938501929190910190611de2565b5060408201518051610fd8916002840191602090910190611de2565b5060608201518051610ff4916003840191602090910190611de2565b5060808201518051611010916004840191602090910190611de2565b5060a091909101516005909101805460ff191691151591909117905550505050505050565b6002546001600160a01b0316331461107e5760405162461bcd60e51b8152600401808060200182810382526033815260200180611e986033913960400191505060405180910390fd5b3360009081526003602090815260409182902080548351601f60026000196101006001861615020190931692909204918201849004840281018401909452808452606093928301828280156111145780601f106110e957610100808354040283529160200191611114565b820191906000526020600020905b8154815290600101906020018083116110f757829003601f168201915b5050505050905080516000141561117857604080516020808252600b908201526a08adae0e8f24092dcc4def60ab1b8183015290517f2974ec83b4de9f76155d0c3e88bd3c0645c56c1795807f37d3f9e95caafeee579181900360600190a161123b565b6040805160208082018084526000808452338152600390925292902090516111a09290611de2565b507f2974ec83b4de9f76155d0c3e88bd3c0645c56c1795807f37d3f9e95caafeee57816040518080602001828103825283818151815260200191508051906020019080838360005b838110156112005781810151838201526020016111e8565b50505050905090810190601f16801561122d5780820380516001836020036101000a031916815260200191505b509250505060405180910390a15b50565b6001600160a01b0385166000908152600a60205260409020600581015460ff161561126857600080fd5b6040805160c0810182526001600160a01b03898116825260208083018981528385018990526060840188905260808401879052600160a085018190528b84166000908152600a845295909520845181546001600160a01b0319169416939093178355518051939492936112e2938501929190910190611de2565b50604082015180516112fe916002840191602090910190611de2565b506060820151805161131a916003840191602090910190611de2565b5060808201518051611336916004840191602090910190611de2565b5060a091909101516005909101805491151560ff19909216919091179055505060078054600181019091557fa66cc928b5edb82af9bd49922954155ab7b0942694bea4ce44661d9a8736c6880180546001600160a01b039586166001600160a01b03199182168117909255600091825260096020526040909120805496909516951694909417909255505050565b60078181548110610cc157fe5b60048181548110610cc157fe5b6001600160a01b0381166000908152600a6020908152604091829020600190810180548451600293821615610100026000190190911692909204601f810184900484028301840190945283825260609384938301828280156114815780601f1061145657610100808354040283529160200191611481565b820191906000526020600020905b81548152906001019060200180831161146457829003601f168201915b5093979650505050505050565b6001600160a01b03821660009081526003602090815260409182902080548351601f60026000196101006001861615020190931692909204918201849004840281018401909452808452909183018282801561152b5780601f106115005761010080835404028352916020019161152b565b820191906000526020600020905b81548152906001019060200180831161150e57829003601f168201915b50508351849350159150611540905057600080fd5b6001600160a01b0384166000908152600360209081526040909120845161156992860190611de2565b507fd3896131bca4353bcda578f36768163e2ca77cefb2988be6c4e81939ca298ac083856040518080602001836001600160a01b03166001600160a01b03168152602001828103825284818151815260200191508051906020019080838360005b838110156115e25781810151838201526020016115ca565b50505050905090810190601f16801561160f5780820380516001836020036101000a031916815260200191505b50935050505060405180910390a150505050565b6002546001600160a01b031681565b60006020819052908152604090205481565b6009602052600090815260409020546001600160a01b031681565b600082511161166d57600080fd5b600081511161167b57600080fd5b3361168557600080fd5b60408051606081018252838152602080820184905233828401819052600090815260018083528482208284528583208054928301905590825282529290922081518051929391926116d99284920190611de2565b5060208281015180516116f29260018501920190611de2565b5060409182015160029190910180546001600160a01b0319166001600160a01b03909216919091179055336000818152602081815283822054845181815260608101859052608081840181815289519183019190915288517fd5d5a20787f44097a136b4e5e275615edb7b2e2f3b9faed0226f2048ebbb642f9793968a968a96919585019260a08601928901918190849084905b8381101561179e578181015183820152602001611786565b50505050905090810190601f1680156117cb5780820380516001836020036101000a031916815260200191505b50838103825285518152855160209182019187019080838360005b838110156117fe5781810151838201526020016117e6565b50505050905090810190601f16801561182b5780820380516001836020036101000a031916815260200191505b50965050505050505060405180910390a15050565b600a602090815260009182526040918290208054600180830180548651600261010094831615949094026000190190911692909204601f81018690048602830186019096528582526001600160a01b039092169492939092908301828280156118ea5780601f106118bf576101008083540402835291602001916118ea565b820191906000526020600020905b8154815290600101906020018083116118cd57829003601f168201915b50505060028085018054604080516020601f600019610100600187161502019094169590950492830185900485028101850190915281815295969594509092509083018282801561197c5780601f106119515761010080835404028352916020019161197c565b820191906000526020600020905b81548152906001019060200180831161195f57829003601f168201915b5050505060038301805460408051602060026001851615610100026000190190941693909304601f8101849004840282018401909252818152949594935090830182828015611a0c5780601f106119e157610100808354040283529160200191611a0c565b820191906000526020600020905b8154815290600101906020018083116119ef57829003601f168201915b5050505060048301805460408051602060026001851615610100026000190190941693909304601f8101849004840282018401909252818152949594935090830182828015611a9c5780601f10611a7157610100808354040283529160200191611a9c565b820191906000526020600020905b815481529060010190602001808311611a7f57829003601f168201915b5050506005909301549192505060ff1686565b6060611abd60086000611e60565b60005b600754811015611b6957826001600160a01b03166009600060078481548110611ae557fe5b60009182526020808320909101546001600160a01b039081168452908301939093526040909101902054161415611b6157600860078281548110611b2557fe5b60009182526020808320909101548354600181018555938352912090910180546001600160a01b0319166001600160a01b039092169190911790555b600101611ac0565b506008805480602002602001604051908101604052809291908181526020018280548015611bc057602002820191906000526020600020905b81546001600160a01b03168152600190910190602001808311611ba2575b50505050509050919050565b6001600160a01b038216600090815260016020818152604080842085855282529283902080548451600294821615610100026000190190911693909304601f8101839004830284018301909452838352606093909291839190830182828015611c765780601f10611c4b57610100808354040283529160200191611c76565b820191906000526020600020905b815481529060010190602001808311611c5957829003601f168201915b505050505091505092915050565b6000611c91600882611e60565b60005b600754811015611d3d57826001600160a01b03166009600060078481548110611cb957fe5b60009182526020808320909101546001600160a01b039081168452908301939093526040909101902054161415611d3557600860078281548110611cf957fe5b60009182526020808320909101548354600181018555938352912090910180546001600160a01b0319166001600160a01b039092169190911790555b600101611c94565b5050600854919050565b60036020908152600091825260409182902080548351601f600260001961010060018616150201909316929092049182018490048402810184019094528084529091830182828015611dda5780601f10611daf57610100808354040283529160200191611dda565b820191906000526020600020905b815481529060010190602001808311611dbd57829003601f168201915b505050505081565b828054600181600116156101000203166002900490600052602060002090601f016020900481019282601f10611e2357805160ff1916838001178555611e50565b82800160010185558215611e50579182015b82811115611e50578251825591602001919060010190611e35565b50611e5c929150611e7a565b5090565b508054600082559060005260206000209081019061123b91905b611e9491905b80821115611e5c5760008155600101611e80565b9056fe546869732066756e6374696f6e206973207265737472696374656420746f2074686520636f6e74726163742773206f776e6572a265627a7a72315820ed30b21b00ae8d16cf172762c4d623e7f421958298884ba99bcac74227d6327b64736f6c63430005100032",
  "source": "// SPDX-License-Identifier: MIT\npragma solidity >=0.5.16;\nimport \"./DocuLibrary.sol\";\n\ncontract DocuNet {\n    // File Contract\n    event FileCreated(\n        uint Filecount,\n        string hash,\n        string description,\n        address owner\n        );\n        \n    //store files\n    //uint fileCount = 0;\n    //mapping(address => File) public files;\n    mapping(address => uint) public fileCount;\n    mapping(address => mapping(uint => DocuLibrary.File)) files;\n    \n    //create files\n    function uploadFile(string memory _fileHash, string memory _description) public{\n        \n        // make sure the file hash exists\n        require(bytes(_fileHash).length > 0);\n        \n        //make sure file description exists\n        require(bytes(_description).length > 0);\n        \n        //make sure uploader address exists\n        require(msg.sender != address(0x0));\n        \n        //increment Filecounter\n        //fileCount ++;\n        \n        //Add files to contract\n        files[msg.sender][fileCount[msg.sender]++] = DocuLibrary.File( _fileHash, _description, msg.sender);\n        \n        //Trigger an event that file has been uploaded\n        emit FileCreated(fileCount[msg.sender], _fileHash, _description, msg.sender);\n    }\n    \n    function getFile(address _owneraddress, uint _filenumber) external view returns(string memory){\n        string storage getFileHash = files[_owneraddress][_filenumber].hash;\n        return getFileHash;\n    }\n\n    // File Transfer\n    address public owner = msg.sender;\n    //Structure\n    mapping (address=>string) public ipfsInbox;\n    \n    //Events\n    event ipfsSent(string _ipfsHash, address payable _address);\n    event inboxResponse(string response);\n    \n    //Modifiers\n    modifier notFull (string memory _string) {\n    bytes memory stringTest = bytes(_string); \n    require(stringTest.length==0); \n    _;\n    }\n    modifier restricted() {\n    require(\n      msg.sender == owner,\n      \"This function is restricted to the contract's owner\"\n    );\n    _;\n    }\n\n    //takes in receiver's address and IPFS address. Places the IPFSadress in the receiver's inbox\n    function sendIPFS(address payable _address, string memory _ipfsHash) notFull(ipfsInbox[_address]) public{\n        ipfsInbox[_address] = _ipfsHash;\n        emit ipfsSent(_ipfsHash, _address);\n    }\n    \n    //check your inbox and empties it afterwards\n    function checkInbox() public restricted{\n        string memory ipfs_hash=ipfsInbox[msg.sender];\n        if(bytes(ipfs_hash).length==0){\n            emit inboxResponse(\"Empty Inbox\");\n        }else{\n            ipfsInbox[msg.sender]=\"\";\n            emit inboxResponse(ipfs_hash);\n        }\n    }\n\n    //retrieves hash\n    function getHash(address _address) public{\n        string memory ipfs_hash=ipfsInbox[_address];\n        emit inboxResponse(ipfs_hash);\n    }\n\n    // School Contract\n    address payable[] public schoolStudents;\n    bool studentInSchool;\n    address[] public schoolStudent;\n    \n    address[] public Records;\n    address[] public addressValues;\n    \n    mapping (address => address) public mappedStudents;\n\n    function addStudent( address _schoolAddress, address _studentAddress, string memory _studentName, string memory _firstname, string memory _lastname, string memory _email) public{\n        DocuLibrary.User storage user = users[_studentAddress];\n        require(!user.set);\n        users[_studentAddress] = DocuLibrary.User({\n        // id: _userId,\n        school: _schoolAddress,\n        name: _studentName,\n        firstname: _firstname,\n        lastname: _lastname,\n        email: _email,\n        set: true\n        });\n        \n        Records.push(_studentAddress);\n        mappedStudents[_studentAddress] = _schoolAddress;\n    }\n    \n    function hasStudent(address _stuAddress) public view returns(bool){\n        if(users[_stuAddress].set == true){\n            return true;\n        }\n        else return false;\n    }\n    \n    function getStudent(address _stuAddress) public  view returns(string memory){\n        string memory answer = users[_stuAddress].name;\n        return answer;\n    }\n    \n    function getStudents(address _schoolAddress) public returns(address[] memory){\n        delete addressValues;\n        for(uint i=0; i< Records.length; i++) {\n            if (mappedStudents[Records[i]]==_schoolAddress) {\n                addressValues.push(Records[i]);\n            }\n        }\n        \n        return addressValues;\n    }\n    \n    function studentCount(address _schoolAddress) public returns(uint){\n        delete addressValues;\n        for(uint i=0; i< Records.length; i++) {\n            if (mappedStudents[Records[i]]==_schoolAddress) {\n                addressValues.push(Records[i]);\n            }\n        }\n        \n        return addressValues.length;\n    }\n    //other functions remaining.\n    // User Contract\n    mapping(address => DocuLibrary.User) public users;\n    function createUser(address _schoolAddress, address _userAddress, string memory _userName, string memory _firstname, string memory _lastname, string memory _email) public {\n    DocuLibrary.User storage user = users[_userAddress];\n    // Check that the user did not already exist:\n    require(!user.set);\n    //Store the user\n    users[_userAddress] = DocuLibrary.User({\n        school: _schoolAddress,\n        // id: _userId,\n        name: _userName,\n        firstname: _firstname,\n        lastname: _lastname,\n        email: _email,\n        set: true\n    });\n    }\n\n    //mapping(uint256 => bytes32) public userDataHashes; // to store user userDataHashes\n\n    // function storeUserDataHash(uint256 _userId, bytes32 _dataHash) public {\n    // userDataHashes[_userId] = _dataHash;\n    // }\n\n    function getuserDataName(address _userAddress) external view returns (string memory) {\n        string storage getUserName = users[_userAddress].name;\n        return getUserName;\n    }\n}",
  "sourcePath": "/Users/jaytwwm/Documents/CSE598/Project/contracts/DocuNet.sol",
  "compiler": {
    "name": "solc",
    "version": "0.5.16+commit.9c3226ce.Emscripten.clang"
  },
  "schemaVersion": "3.4.10",
  "updatedAt": "2022-11-22T20:00:29.478Z",
  "networkType": "ethereum",
  "devdoc": {
    "methods": {}
  },
  "userdoc": {
    "methods": {}
  }
}