{
  "contractName": "DocuNet",
  "abi": [
    {
      "inputs": [
        {
          "internalType": "address",
          "name": "_university",
          "type": "address"
        }
      ],
      "payable": false,
      "stateMutability": "nonpayable",
      "type": "constructor"
    },
    {
      "anonymous": false,
      "inputs": [
        {
          "indexed": false,
          "internalType": "string",
          "name": "name",
          "type": "string"
        }
      ],
      "name": "ApplicationSubmitted",
      "type": "event"
    },
    {
      "anonymous": false,
      "inputs": [
        {
          "indexed": false,
          "internalType": "string",
          "name": "passport",
          "type": "string"
        }
      ],
      "name": "CredentialsUpdated",
      "type": "event"
    },
    {
      "anonymous": false,
      "inputs": [
        {
          "indexed": false,
          "internalType": "string",
          "name": "name",
          "type": "string"
        }
      ],
      "name": "DecisionMade",
      "type": "event"
    },
    {
      "anonymous": false,
      "inputs": [
        {
          "indexed": false,
          "internalType": "string",
          "name": "name",
          "type": "string"
        }
      ],
      "name": "StudentCreation",
      "type": "event"
    },
    {
      "anonymous": false,
      "inputs": [
        {
          "indexed": false,
          "internalType": "string",
          "name": "name",
          "type": "string"
        }
      ],
      "name": "VerifierApproved",
      "type": "event"
    },
    {
      "anonymous": false,
      "inputs": [
        {
          "indexed": false,
          "internalType": "string",
          "name": "name",
          "type": "string"
        }
      ],
      "name": "VerifierCreation",
      "type": "event"
    },
    {
      "constant": true,
      "inputs": [
        {
          "internalType": "address",
          "name": "",
          "type": "address"
        }
      ],
      "name": "studentLookup",
      "outputs": [
        {
          "internalType": "address",
          "name": "adder",
          "type": "address"
        },
        {
          "internalType": "string",
          "name": "passport",
          "type": "string"
        },
        {
          "internalType": "string",
          "name": "name",
          "type": "string"
        },
        {
          "internalType": "string",
          "name": "email",
          "type": "string"
        },
        {
          "internalType": "string",
          "name": "pass",
          "type": "string"
        },
        {
          "internalType": "string",
          "name": "passportHash",
          "type": "string"
        },
        {
          "internalType": "string",
          "name": "sopHash",
          "type": "string"
        },
        {
          "internalType": "uint256",
          "name": "status",
          "type": "uint256"
        }
      ],
      "payable": false,
      "stateMutability": "view",
      "type": "function"
    },
    {
      "constant": true,
      "inputs": [
        {
          "internalType": "address",
          "name": "",
          "type": "address"
        }
      ],
      "name": "verifierLookup",
      "outputs": [
        {
          "internalType": "address",
          "name": "adder",
          "type": "address"
        },
        {
          "internalType": "uint256",
          "name": "id",
          "type": "uint256"
        },
        {
          "internalType": "string",
          "name": "name",
          "type": "string"
        },
        {
          "internalType": "bool",
          "name": "approved",
          "type": "bool"
        }
      ],
      "payable": false,
      "stateMutability": "view",
      "type": "function"
    },
    {
      "constant": false,
      "inputs": [
        {
          "internalType": "string",
          "name": "_passport",
          "type": "string"
        },
        {
          "internalType": "string",
          "name": "_name",
          "type": "string"
        },
        {
          "internalType": "string",
          "name": "_email",
          "type": "string"
        },
        {
          "internalType": "string",
          "name": "_pass",
          "type": "string"
        },
        {
          "internalType": "string",
          "name": "_passportHash",
          "type": "string"
        },
        {
          "internalType": "string",
          "name": "_sopHash",
          "type": "string"
        }
      ],
      "name": "addStudent",
      "outputs": [],
      "payable": false,
      "stateMutability": "nonpayable",
      "type": "function"
    },
    {
      "constant": true,
      "inputs": [
        {
          "internalType": "uint256",
          "name": "_id",
          "type": "uint256"
        },
        {
          "internalType": "string",
          "name": "_passport",
          "type": "string"
        }
      ],
      "name": "getCredsFromIndex",
      "outputs": [
        {
          "internalType": "string",
          "name": "",
          "type": "string"
        },
        {
          "internalType": "string",
          "name": "",
          "type": "string"
        }
      ],
      "payable": false,
      "stateMutability": "view",
      "type": "function"
    },
    {
      "constant": true,
      "inputs": [
        {
          "internalType": "uint256",
          "name": "_id",
          "type": "uint256"
        }
      ],
      "name": "getCreds",
      "outputs": [
        {
          "internalType": "string",
          "name": "",
          "type": "string"
        },
        {
          "internalType": "string",
          "name": "",
          "type": "string"
        }
      ],
      "payable": false,
      "stateMutability": "view",
      "type": "function"
    },
    {
      "constant": false,
      "inputs": [],
      "name": "submitApplication",
      "outputs": [],
      "payable": false,
      "stateMutability": "nonpayable",
      "type": "function"
    },
    {
      "constant": false,
      "inputs": [
        {
          "internalType": "string",
          "name": "_name",
          "type": "string"
        }
      ],
      "name": "addVerifier",
      "outputs": [],
      "payable": false,
      "stateMutability": "nonpayable",
      "type": "function"
    },
    {
      "constant": false,
      "inputs": [
        {
          "internalType": "uint256",
          "name": "_id",
          "type": "uint256"
        }
      ],
      "name": "approveVerifier",
      "outputs": [],
      "payable": false,
      "stateMutability": "nonpayable",
      "type": "function"
    },
    {
      "constant": false,
      "inputs": [
        {
          "internalType": "uint256",
          "name": "_id",
          "type": "uint256"
        }
      ],
      "name": "disapproveVerifier",
      "outputs": [],
      "payable": false,
      "stateMutability": "nonpayable",
      "type": "function"
    },
    {
      "constant": false,
      "inputs": [
        {
          "internalType": "string",
          "name": "_passport",
          "type": "string"
        },
        {
          "internalType": "bool",
          "name": "accepted",
          "type": "bool"
        }
      ],
      "name": "giveDecision",
      "outputs": [],
      "payable": false,
      "stateMutability": "nonpayable",
      "type": "function"
    },
    {
      "constant": false,
      "inputs": [
        {
          "internalType": "string",
          "name": "_passport",
          "type": "string"
        },
        {
          "internalType": "string",
          "name": "_hasher",
          "type": "string"
        }
      ],
      "name": "updateCredentials",
      "outputs": [],
      "payable": false,
      "stateMutability": "nonpayable",
      "type": "function"
    },
    {
      "constant": true,
      "inputs": [],
      "name": "getStudentCount",
      "outputs": [
        {
          "internalType": "uint256",
          "name": "",
          "type": "uint256"
        }
      ],
      "payable": false,
      "stateMutability": "view",
      "type": "function"
    },
    {
      "constant": true,
      "inputs": [],
      "name": "getVerifierCount",
      "outputs": [
        {
          "internalType": "uint256",
          "name": "",
          "type": "uint256"
        }
      ],
      "payable": false,
      "stateMutability": "view",
      "type": "function"
    },
    {
      "constant": true,
      "inputs": [
        {
          "internalType": "uint256",
          "name": "_index",
          "type": "uint256"
        }
      ],
      "name": "getStudentFromIndex",
      "outputs": [
        {
          "internalType": "string",
          "name": "",
          "type": "string"
        },
        {
          "internalType": "string",
          "name": "",
          "type": "string"
        },
        {
          "internalType": "string",
          "name": "",
          "type": "string"
        },
        {
          "internalType": "uint256",
          "name": "",
          "type": "uint256"
        },
        {
          "internalType": "string",
          "name": "",
          "type": "string"
        },
        {
          "internalType": "string",
          "name": "",
          "type": "string"
        }
      ],
      "payable": false,
      "stateMutability": "view",
      "type": "function"
    },
    {
      "constant": true,
      "inputs": [
        {
          "internalType": "uint256",
          "name": "_index",
          "type": "uint256"
        }
      ],
      "name": "getVerifierFromIndex",
      "outputs": [
        {
          "internalType": "string",
          "name": "",
          "type": "string"
        },
        {
          "internalType": "bool",
          "name": "",
          "type": "bool"
        }
      ],
      "payable": false,
      "stateMutability": "view",
      "type": "function"
    },
    {
      "constant": true,
      "inputs": [
        {
          "internalType": "string",
          "name": "_passport",
          "type": "string"
        }
      ],
      "name": "getStudentFromPassport",
      "outputs": [
        {
          "internalType": "string",
          "name": "",
          "type": "string"
        },
        {
          "internalType": "string",
          "name": "",
          "type": "string"
        },
        {
          "internalType": "string",
          "name": "",
          "type": "string"
        },
        {
          "internalType": "uint256",
          "name": "",
          "type": "uint256"
        },
        {
          "internalType": "string",
          "name": "",
          "type": "string"
        },
        {
          "internalType": "string",
          "name": "",
          "type": "string"
        }
      ],
      "payable": false,
      "stateMutability": "view",
      "type": "function"
    },
    {
      "constant": true,
      "inputs": [],
      "name": "getStudentInfo",
      "outputs": [
        {
          "internalType": "string",
          "name": "",
          "type": "string"
        },
        {
          "internalType": "string",
          "name": "",
          "type": "string"
        },
        {
          "internalType": "string",
          "name": "",
          "type": "string"
        },
        {
          "internalType": "uint256",
          "name": "",
          "type": "uint256"
        },
        {
          "internalType": "string",
          "name": "",
          "type": "string"
        },
        {
          "internalType": "string",
          "name": "",
          "type": "string"
        }
      ],
      "payable": false,
      "stateMutability": "view",
      "type": "function"
    }
  ],
  "bytecode": "0x608060405234801561001057600080fd5b506040516137ee3803806137ee8339818101604052602081101561003357600080fd5b5051600080546001600160a01b039092166001600160a01b0319909216919091179055613789806100656000396000f3fe608060405234801561001057600080fd5b506004361061010b5760003560e01c80637f43642a116100a2578063a45e623f11610071578063a45e623f14610e5e578063b9c688a714610e7b578063c6d3bfc514610e83578063cc9e318714610fac578063eb5565f414610fb45761010b565b80637f43642a14610adf5780638d93532d14610afc578063a11d211b14610b19578063a1e68c5214610e565761010b565b806341e0c407116100de57806341e0c4071461069c57806346036f54146106b657806355c2c852146109725780637d692b5014610a165761010b565b806301a0339e146101105780631a16c966146102995780631dc47de81461034157806327cff493146105fc575b600080fd5b6101bb6004803603604081101561012657600080fd5b81359190810190604081016020820135600160201b81111561014757600080fd5b82018360208201111561015957600080fd5b803590602001918460018302840111600160201b8311171561017a57600080fd5b91908080601f016020809104026020016040519081016040528093929190818152602001838380828437600092019190915250929550610fd1945050505050565b604051808060200180602001838103835285818151815260200191508051906020019080838360005b838110156101fc5781810151838201526020016101e4565b50505050905090810190601f1680156102295780820380516001836020036101000a031916815260200191505b50838103825284518152845160209182019186019080838360005b8381101561025c578181015183820152602001610244565b50505050905090810190601f1680156102895780820380516001836020036101000a031916815260200191505b5094505050505060405180910390f35b61033f600480360360408110156102af57600080fd5b810190602081018135600160201b8111156102c957600080fd5b8201836020820111156102db57600080fd5b803590602001918460018302840111600160201b831117156102fc57600080fd5b91908080601f0160208091040260200160405190810160405280939291908181526020018383808284376000920191909152509295505050503515159050611314565b005b6103e56004803603602081101561035757600080fd5b810190602081018135600160201b81111561037157600080fd5b82018360208201111561038357600080fd5b803590602001918460018302840111600160201b831117156103a457600080fd5b91908080601f016020809104026020016040519081016040528093929190818152602001838380828437600092019190915250929550611612945050505050565b60405180806020018060200180602001878152602001806020018060200186810386528c818151815260200191508051906020019080838360005b83811015610438578181015183820152602001610420565b50505050905090810190601f1680156104655780820380516001836020036101000a031916815260200191505b5086810385528b5181528b516020918201918d019080838360005b83811015610498578181015183820152602001610480565b50505050905090810190601f1680156104c55780820380516001836020036101000a031916815260200191505b5086810384528a5181528a516020918201918c019080838360005b838110156104f85781810151838201526020016104e0565b50505050905090810190601f1680156105255780820380516001836020036101000a031916815260200191505b5086810383528851815288516020918201918a019080838360005b83811015610558578181015183820152602001610540565b50505050905090810190601f1680156105855780820380516001836020036101000a031916815260200191505b50868103825287518152875160209182019189019080838360005b838110156105b85781810151838201526020016105a0565b50505050905090810190601f1680156105e55780820380516001836020036101000a031916815260200191505b509b50505050505050505050505060405180910390f35b6106196004803603602081101561061257600080fd5b5035611aac565b604051808060200183151515158152602001828103825284818151815260200191508051906020019080838360005b83811015610660578181015183820152602001610648565b50505050905090810190601f16801561068d5780820380516001836020036101000a031916815260200191505b50935050505060405180910390f35b6106a4611c2f565b60408051918252519081900360200190f35b6106dc600480360360208110156106cc57600080fd5b50356001600160a01b0316611c85565b60405180896001600160a01b03166001600160a01b0316815260200180602001806020018060200180602001806020018060200188815260200187810387528e818151815260200191508051906020019080838360005b8381101561074b578181015183820152602001610733565b50505050905090810190601f1680156107785780820380516001836020036101000a031916815260200191505b5087810386528d5181528d516020918201918f019080838360005b838110156107ab578181015183820152602001610793565b50505050905090810190601f1680156107d85780820380516001836020036101000a031916815260200191505b5087810385528c5181528c516020918201918e019080838360005b8381101561080b5781810151838201526020016107f3565b50505050905090810190601f1680156108385780820380516001836020036101000a031916815260200191505b5087810384528b5181528b516020918201918d019080838360005b8381101561086b578181015183820152602001610853565b50505050905090810190601f1680156108985780820380516001836020036101000a031916815260200191505b5087810383528a5181528a516020918201918c019080838360005b838110156108cb5781810151838201526020016108b3565b50505050905090810190601f1680156108f85780820380516001836020036101000a031916815260200191505b5087810382528951815289516020918201918b019080838360005b8381101561092b578181015183820152602001610913565b50505050905090810190601f1680156109585780820380516001836020036101000a031916815260200191505b509e50505050505050505050505050505060405180910390f35b61033f6004803603602081101561098857600080fd5b810190602081018135600160201b8111156109a257600080fd5b8201836020820111156109b457600080fd5b803590602001918460018302840111600160201b831117156109d557600080fd5b91908080601f016020809104026020016040519081016040528093929190818152602001838380828437600092019190915250929550612010945050505050565b610a3c60048036036020811015610a2c57600080fd5b50356001600160a01b03166121d5565b60405180856001600160a01b03166001600160a01b031681526020018481526020018060200183151515158152602001828103825284818151815260200191508051906020019080838360005b83811015610aa1578181015183820152602001610a89565b50505050905090810190601f168015610ace5780820380516001836020036101000a031916815260200191505b509550505050505060405180910390f35b61033f60048036036020811015610af557600080fd5b5035612294565b61033f60048036036020811015610b1257600080fd5b5035612426565b61033f600480360360c0811015610b2f57600080fd5b810190602081018135600160201b811115610b4957600080fd5b820183602082011115610b5b57600080fd5b803590602001918460018302840111600160201b83111715610b7c57600080fd5b91908080601f0160208091040260200160405190810160405280939291908181526020018383808284376000920191909152509295949360208101935035915050600160201b811115610bce57600080fd5b820183602082011115610be057600080fd5b803590602001918460018302840111600160201b83111715610c0157600080fd5b91908080601f0160208091040260200160405190810160405280939291908181526020018383808284376000920191909152509295949360208101935035915050600160201b811115610c5357600080fd5b820183602082011115610c6557600080fd5b803590602001918460018302840111600160201b83111715610c8657600080fd5b91908080601f0160208091040260200160405190810160405280939291908181526020018383808284376000920191909152509295949360208101935035915050600160201b811115610cd857600080fd5b820183602082011115610cea57600080fd5b803590602001918460018302840111600160201b83111715610d0b57600080fd5b91908080601f0160208091040260200160405190810160405280939291908181526020018383808284376000920191909152509295949360208101935035915050600160201b811115610d5d57600080fd5b820183602082011115610d6f57600080fd5b803590602001918460018302840111600160201b83111715610d9057600080fd5b91908080601f0160208091040260200160405190810160405280939291908181526020018383808284376000920191909152509295949360208101935035915050600160201b811115610de257600080fd5b820183602082011115610df457600080fd5b803590602001918460018302840111600160201b83111715610e1557600080fd5b91908080601f016020809104026020016040519081016040528093929190818152602001838380828437600092019190915250929550612585945050505050565b6103e5612846565b6103e560048036036020811015610e7457600080fd5b5035612baf565b6106a4612d08565b61033f60048036036040811015610e9957600080fd5b810190602081018135600160201b811115610eb357600080fd5b820183602082011115610ec557600080fd5b803590602001918460018302840111600160201b83111715610ee657600080fd5b91908080601f0160208091040260200160405190810160405280939291908181526020018383808284376000920191909152509295949360208101935035915050600160201b811115610f3857600080fd5b820183602082011115610f4a57600080fd5b803590602001918460018302840111600160201b83111715610f6b57600080fd5b91908080601f016020809104026020016040519081016040528093929190818152602001838380828437600092019190915250929550612d68945050505050565b61033f613076565b6101bb60048036036020811015610fca57600080fd5b50356131ee565b60005460609081906001600160a01b03163314611023576040805162461bcd60e51b815260206004820152601a60248201526000805160206136c7833981519152604482015290519081900360640190fd5b6000848152600360208181526040808420546001600160a01b031684526002909152909120015460ff1615611233576000848152600360209081526040808320546001600160a01b03168352600280835281842091518751929091019360019390926004928992909182918401908083835b602083106110b45780518252601f199092019160209182019101611095565b518151602093840361010090810a600019908101801990941693909216929092179092529290940196875260408051978890038201909720546001600160a01b031688528781019890985295850160009081208d8252600801885285902088548651600260018316159099029094011696909604601f81018890048802830188019095525083815293948693925084019050828280156111955780601f1061116a57610100808354040283529160200191611195565b820191906000526020600020905b81548152906001019060200180831161117857829003601f168201915b5050845460408051602060026001851615610100026000190190941693909304601f8101849004840282018401909252818152959750869450925084019050828280156112235780601f106111f857610100808354040283529160200191611223565b820191906000526020600020905b81548152906001019060200180831161120657829003601f168201915b505050505090509150915061130d565b6000848152600360209081526040808320546001600160a01b031683526002808352928190208301805482516101006001831615026000190190911694909404601f810184900484028501840190925281845292918391908301828280156112dc5780601f106112b1576101008083540402835291602001916112dc565b820191906000526020600020905b8154815290600101906020018083116112bf57829003601f168201915b505050505090506040518060400160405280600c81526020016b139bdd0814995c5d5a5c995960a21b815250915091505b9250929050565b6000546001600160a01b03163314611361576040805162461bcd60e51b815260206004820152601a60248201526000805160206136c7833981519152604482015290519081900360640190fd5b60006001600160a01b03166004836040518082805190602001908083835b6020831061139e5780518252601f19909201916020918201910161137f565b51815160209384036101000a60001901801990921691161790529201948552506040519384900301909220546001600160a01b0316929092141591506114279050576040805162461bcd60e51b81526020600482015260176024820152764e6f20537563682053747564656e74204578697374732160481b604482015290519081900360640190fd5b60006004836040518082805190602001908083835b6020831061145b5780518252601f19909201916020918201910161143c565b51815160209384036101000a600019018019909216911617905292019485525060408051948590038201909420546001600160a01b031660008181526001909252939020600701549293506114fa915050576040805162461bcd60e51b815260206004820152601e60248201527f4170706c69636174696f6e204e6f7420436f6d706c6574656420596574210000604482015290519081900360640190fd5b8115611525576001600160a01b03811660009081526001602052604090206003600790910155611546565b6001600160a01b038116600090815260016020526040902060026007909101555b6001600160a01b038116600090815260016020818152604092839020835182815260029182018054948516156101000260001901909416919091049181018290527f03c1f0ac219dbe37dc04d68a7e8bfbc8753e377844955bcec9a6d7f619ed97839390918291820190849080156115ff5780601f106115d4576101008083540402835291602001916115ff565b820191906000526020600020905b8154815290600101906020018083116115e257829003601f168201915b50509250505060405180910390a1505050565b600080546060918291829190829081906001600160a01b0316331461166c576040805162461bcd60e51b815260206004820152601a60248201526000805160206136c7833981519152604482015290519081900360640190fd5b60006001600160a01b03166004886040518082805190602001908083835b602083106116a95780518252601f19909201916020918201910161168a565b51815160209384036101000a60001901801990921691161790529201948552506040519384900301909220546001600160a01b0316929092141591506117329050576040805162461bcd60e51b81526020600482015260176024820152764e6f20537563682053747564656e74204578697374732160481b604482015290519081900360640190fd5b60006004886040518082805190602001908083835b602083106117665780518252601f199092019160209182019101611747565b518151600019602094850361010090810a82019283169219939093169190911790925294909201968752604080519788900382018820546001600160a01b0316600081815260018085529083902060078101548183018054601f600295821615909b0290980190971683900498890186900486028c018601909452878b52919a50939893810197506003810196509094600582019450600690910192918891908301828280156118575780601f1061182c57610100808354040283529160200191611857565b820191906000526020600020905b81548152906001019060200180831161183a57829003601f168201915b5050885460408051602060026001851615610100026000190190941693909304601f8101849004840282018401909252818152959b508a9450925084019050828280156118e55780601f106118ba576101008083540402835291602001916118e5565b820191906000526020600020905b8154815290600101906020018083116118c857829003601f168201915b5050875460408051602060026001851615610100026000190190941693909304601f8101849004840282018401909252818152959a50899450925084019050828280156119735780601f1061194857610100808354040283529160200191611973565b820191906000526020600020905b81548152906001019060200180831161195657829003601f168201915b5050855460408051602060026001851615610100026000190190941693909304601f810184900484028201840190925281815295995087945092508401905082828015611a015780601f106119d657610100808354040283529160200191611a01565b820191906000526020600020905b8154815290600101906020018083116119e457829003601f168201915b5050845460408051602060026001851615610100026000190190941693909304601f810184900484028201840190925281815295975086945092508401905082828015611a8f5780601f10611a6457610100808354040283529160200191611a8f565b820191906000526020600020905b815481529060010190602001808311611a7257829003601f168201915b505050505090509650965096509650965096505091939550919395565b60008054606091906001600160a01b03163314611afe576040805162461bcd60e51b815260206004820152601a60248201526000805160206136c7833981519152604482015290519081900360640190fd5b6000838152600360205260409020546001600160a01b0316611b67576040805162461bcd60e51b815260206004820152601860248201527f4e6f205375636820566572696669657220457869737473210000000000000000604482015290519081900360640190fd5b6000838152600360208181526040808420546001600160a01b031680855260028084529482902093840154938501805483516101006001831615026000190190911696909604601f81018590048502870185019093528286529094909360ff169290918491830182828015611c1d5780601f10611bf257610100808354040283529160200191611c1d565b820191906000526020600020905b815481529060010190602001808311611c0057829003601f168201915b5050505050915092509250505b915091565b600080546001600160a01b03163314611c7d576040805162461bcd60e51b815260206004820152601a60248201526000805160206136c7833981519152604482015290519081900360640190fd5b506006545b90565b600160208181526000928352604092839020805481840180548651600261010097831615979097026000190190911695909504601f81018590048502860185019096528585526001600160a01b0390911694919392909190830182828015611d2e5780601f10611d0357610100808354040283529160200191611d2e565b820191906000526020600020905b815481529060010190602001808311611d1157829003601f168201915b50505060028085018054604080516020601f6000196101006001871615020190941695909504928301859004850281018501909152818152959695945090925090830182828015611dc05780601f10611d9557610100808354040283529160200191611dc0565b820191906000526020600020905b815481529060010190602001808311611da357829003601f168201915b5050505060038301805460408051602060026001851615610100026000190190941693909304601f8101849004840282018401909252818152949594935090830182828015611e505780601f10611e2557610100808354040283529160200191611e50565b820191906000526020600020905b815481529060010190602001808311611e3357829003601f168201915b5050505060048301805460408051602060026001851615610100026000190190941693909304601f8101849004840282018401909252818152949594935090830182828015611ee05780601f10611eb557610100808354040283529160200191611ee0565b820191906000526020600020905b815481529060010190602001808311611ec357829003601f168201915b5050505060058301805460408051602060026001851615610100026000190190941693909304601f8101849004840282018401909252818152949594935090830182828015611f705780601f10611f4557610100808354040283529160200191611f70565b820191906000526020600020905b815481529060010190602001808311611f5357829003601f168201915b5050505060068301805460408051602060026001851615610100026000190190941693909304601f81018490048402820184019092528181529495949350908301828280156120005780601f10611fd557610100808354040283529160200191612000565b820191906000526020600020905b815481529060010190602001808311611fe357829003601f168201915b5050505050908060070154905088565b336000908152600160205260409020546001600160a01b0316156120655760405162461bcd60e51b81526004018080602001828103825260298152602001806137076029913960400191505060405180910390fd5b336000908152600260205260409020546001600160a01b0316156120d0576040805162461bcd60e51b815260206004820152601b60248201527f596f752041726520416c72656164792041205665726966696572210000000000604482015290519081900360640190fd5b336000908152600260208181526040909220835190926120f6928401919085019061362e565b508054336001600160a01b0319918216811783556003808401805460ff1916905560078054600090815260209283526040808220805490961690941790945580546001019055815181815285518183015285517f215c31a783ca8b56f83cde8304a6a902eff51735c6ed95d42d81a54b0c99529894879492938493840192908601918190849084905b8381101561219757818101518382015260200161217f565b50505050905090810190601f1680156121c45780820380516001836020036101000a031916815260200191505b509250505060405180910390a15050565b600260208181526000928352604092839020805460018083015483860180548851601f600019958316156101000295909501909116979097049283018690048602870186019097528186526001600160a01b0390921695919492938301828280156122815780601f1061225657610100808354040283529160200191612281565b820191906000526020600020905b81548152906001019060200180831161226457829003601f168201915b5050506003909301549192505060ff1684565b6000546001600160a01b031633146122e1576040805162461bcd60e51b815260206004820152601a60248201526000805160206136c7833981519152604482015290519081900360640190fd5b6000818152600360205260409020546001600160a01b0316612344576040805162461bcd60e51b81526020600482015260176024820152764e6f205375636820566572696669657220466f756e642160481b604482015290519081900360640190fd5b6000818152600360208181526040808420546001600160a01b0316808552600280845294829020938401805460ff1916905581518381529385018054600019600182161561010002011695909504928401839052937ffda562e1805568ea4ce9d209a3c1b38dd10b9365f3c9137b0240a9840b111bce9390929091829190820190849080156124145780601f106123e957610100808354040283529160200191612414565b820191906000526020600020905b8154815290600101906020018083116123f757829003601f168201915b50509250505060405180910390a15050565b6000546001600160a01b03163314612473576040805162461bcd60e51b815260206004820152601a60248201526000805160206136c7833981519152604482015290519081900360640190fd5b6000818152600360205260409020546001600160a01b03166124d6576040805162461bcd60e51b81526020600482015260176024820152764e6f205375636820566572696669657220466f756e642160481b604482015290519081900360640190fd5b6000818152600360208181526040808420546001600160a01b0316808552600280845294829020938401805460ff191660019081179091558251848152948601805460001992811615610100029290920190911695909504928401839052937ffda562e1805568ea4ce9d209a3c1b38dd10b9365f3c9137b0240a9840b111bce9390929091829190820190849080156124145780601f106123e957610100808354040283529160200191612414565b336000908152600260205260409020546001600160a01b0316156125f0576040805162461bcd60e51b815260206004820152601c60248201527f596f7520416c7265616479204861766520412056657269666965722100000000604482015290519081900360640190fd5b336000908152600160205260409020546001600160a01b03161561265b576040805162461bcd60e51b815260206004820152601c60248201527f596f7520416c7265616479204861766520416e204163636f756e742100000000604482015290519081900360640190fd5b3360009081526001602081815260409092208851909261268192840191908a019061362e565b508551612697906002830190602089019061362e565b5084516126ad906003830190602088019061362e565b5083516126c3906004830190602087019061362e565b5082516126d9906005830190602086019061362e565b5081516126ef906006830190602085019061362e565b5080546001600160a01b0319163390811782556000600783015560405188516004918a91819060208401908083835b6020831061273d5780518252601f19909201916020918201910161271e565b51815160001960209485036101000a0190811690199190911617905292019485525060408051948590038201852080546001600160a01b03979097166001600160a01b03199788161790556006805460009081526005845282812080549098163317909755805460010190558185528b51858301528b517f7e7dd9f583f3c3a3d2a5efa6d2860c40115a578c292e0cbf994267edc2c02686968d969550859450918401928601918190849084905b838110156128035781810151838201526020016127eb565b50505050905090810190601f1680156128305780820380516001836020036101000a031916815260200191505b509250505060405180910390a150505050505050565b336000908152600160205260408120546060918291829190829081906001600160a01b03166128aa576040805162461bcd60e51b815260206004820152601b60248201526000805160206136e7833981519152604482015290519081900360640190fd5b336000908152600160208181526040928390206007810154818401805486516002968216156101000260001901909116869004601f810186900486028201860190975286815290959483019460038401949293600581019360069091019291889183018282801561295c5780601f106129315761010080835404028352916020019161295c565b820191906000526020600020905b81548152906001019060200180831161293f57829003601f168201915b5050885460408051602060026001851615610100026000190190941693909304601f8101849004840282018401909252818152959b508a9450925084019050828280156129ea5780601f106129bf576101008083540402835291602001916129ea565b820191906000526020600020905b8154815290600101906020018083116129cd57829003601f168201915b5050875460408051602060026001851615610100026000190190941693909304601f8101849004840282018401909252818152959a5089945092508401905082828015612a785780601f10612a4d57610100808354040283529160200191612a78565b820191906000526020600020905b815481529060010190602001808311612a5b57829003601f168201915b5050855460408051602060026001851615610100026000190190941693909304601f810184900484028201840190925281815295995087945092508401905082828015612b065780601f10612adb57610100808354040283529160200191612b06565b820191906000526020600020905b815481529060010190602001808311612ae957829003601f168201915b5050845460408051602060026001851615610100026000190190941693909304601f810184900484028201840190925281815295975086945092508401905082828015612b945780601f10612b6957610100808354040283529160200191612b94565b820191906000526020600020905b815481529060010190602001808311612b7757829003601f168201915b50505050509050955095509550955095509550909192939495565b600080546060918291829190829081906001600160a01b03163314612c09576040805162461bcd60e51b815260206004820152601a60248201526000805160206136c7833981519152604482015290519081900360640190fd5b6000878152600560205260409020546001600160a01b0316612c6c576040805162461bcd60e51b81526020600482015260176024820152764e6f20537563682053747564656e74204578697374732160481b604482015290519081900360640190fd5b6000878152600560208181526040808420546001600160a01b031680855260018084529482902060078101548187018054855160026101009a8316159a909a0260001901909116899004601f8101889004880282018801909652858152939790969083019560038401959294918401936006019288918301828280156118575780601f1061182c57610100808354040283529160200191611857565b336000908152600260205260408120546001600160a01b031615612d61576040805162461bcd60e51b815260206004820152601a60248201526000805160206136c7833981519152604482015290519081900360640190fd5b5060075490565b336000908152600260205260409020546001600160a01b0316612dc0576040805162461bcd60e51b815260206004820152601a60248201526000805160206136c7833981519152604482015290519081900360640190fd5b60006001600160a01b03166004836040518082805190602001908083835b60208310612dfd5780518252601f199092019160209182019101612dde565b51815160209384036101000a60001901801990921691161790529201948552506040519384900301909220546001600160a01b031692909214159150612e869050576040805162461bcd60e51b81526020600482015260176024820152764e6f20537563682053747564656e74204578697374732160481b604482015290519081900360640190fd5b60006004836040518082805190602001908083835b60208310612eba5780518252601f199092019160209182019101612e9b565b51815160209384036101000a600019018019909216911617905292019485525060408051948590038201909420546001600160a01b031660008181526001909252939020600701549293505090159050612f455760405162461bcd60e51b81526004018080602001828103825260258152602001806137306025913960400191505060405180910390fd5b33600090815260026020908152604080832060019081015482516060810184528781528085018290526001600160a01b0387168185018190528652918452828520818652600801845291909320835180519294939192612fa8928492019061362e565b506020828101516001830155604092830151600290920180546001600160a01b0319166001600160a01b0390931692909217909155815181815286518183015286517ff035459b4cfde02b609060400206da448ce82b15a74849d011a252df4e5580cb9388938392918301919085019080838360005b8381101561303657818101518382015260200161301e565b50505050905090810190601f1680156130635780820380516001836020036101000a031916815260200191505b509250505060405180910390a150505050565b336000908152600160205260409020546001600160a01b03166130ce576040805162461bcd60e51b815260206004820152601b60248201526000805160206136e7833981519152604482015290519081900360640190fd5b6130d66134d0565b613127576040805162461bcd60e51b815260206004820152601f60248201527f596f7572204170706c69636174696f6e20497320496e636f6d706c6574652100604482015290519081900360640190fd5b3360009081526001602081815260409283902060078101839055835182815260029182018054948516156101000260001901909416919091049181018290527f6bfbd9607f1060790a41eb85cefa0ef6698a904068df0e40af34b1e0dec1a4f49390918291820190849080156131de5780601f106131b3576101008083540402835291602001916131de565b820191906000526020600020905b8154815290600101906020018083116131c157829003601f168201915b50509250505060405180910390a1565b3360009081526001602052604090205460609081906001600160a01b031615158061322357506000546001600160a01b031633145b613262576040805162461bcd60e51b815260206004820152601b60248201526000805160206136e7833981519152604482015290519081900360640190fd5b6000838152600360208181526040808420546001600160a01b031684526002909152909120015460ff16156133f2576000838152600360209081526040808320546001600160a01b0316835260028083528184203385526001808552838620898752600801855294839020908201805484516101009782161597909702600019011692909204601f810185900485028601850190935282855290939092909184918301828280156133545780601f1061332957610100808354040283529160200191613354565b820191906000526020600020905b81548152906001019060200180831161333757829003601f168201915b5050845460408051602060026001851615610100026000190190941693909304601f8101849004840282018401909252818152959750869450925084019050828280156133e25780601f106133b7576101008083540402835291602001916133e2565b820191906000526020600020905b8154815290600101906020018083116133c557829003601f168201915b5050505050905091509150611c2a565b6000838152600360209081526040808320546001600160a01b031683526002808352928190208301805482516101006001831615026000190190911694909404601f8101849004840285018401909252818452929183919083018282801561349b5780601f106134705761010080835404028352916020019161349b565b820191906000526020600020905b81548152906001019060200180831161347e57829003601f168201915b505050505090506040518060400160405280600c81526020016b139bdd0814995c5d5a5c995960a21b81525091509150915091565b336000908152600160205260408120546001600160a01b0316613528576040805162461bcd60e51b815260206004820152601b60248201526000805160206136e7833981519152604482015290519081900360640190fd5b60005b600754811015613626576040805160008082526020808301808552835190203383526001808352858420878552600801909252918490208054929490930191829184916002918116156101000260001901160480156135c15780601f1061359f5761010080835404028352918201916135c1565b820191906000526020600020905b8154815290600101906020018083116135ad575b50509150506040516020818303038152906040528051906020012014801561360f57506000818152600360208181526040808420546001600160a01b031684526002909152909120015460ff165b1561361e576000915050611c82565b60010161352b565b506001905090565b828054600181600116156101000203166002900490600052602060002090601f016020900481019282601f1061366f57805160ff191683800117855561369c565b8280016001018555821561369c579182015b8281111561369c578251825591602001919060010190613681565b506136a89291506136ac565b5090565b611c8291905b808211156136a857600081556001016136b256fe596f7520446f204e6f74204861766520417574686f7269747921000000000000596f7520446f204e6f74204861766520416e204163636f756e74210000000000596f7520416c7265616479204861766520416e204163636f756e7420417320412053747564656e7421546865204170706c69636174696f6e20497320416c7265616479205375626d69747465642ea265627a7a723158209c00a165306466bfebc3bd847d85748e25fa4e3f1d4482dbca79a32afcf13f0364736f6c63430005100032",
  "source": "// SPDX-License-Identifier: Apache-2.0\n//\n// Copyright 2022 Jay Dinesh Mehta\n//\n// Licensed under the Apache License, Version 2.0 (the \"License\");\n// you may not use this file except in compliance with the License.\n// You may obtain a copy of the License at\n//\n// http://www.apache.org/licenses/LICENSE-2.0\n//\n// Unless required by applicable law or agreed to in writing, software\n// distributed under the License is distributed on an \"AS IS\" BASIS,\n// WITHOUT WARRANTIES OR CONDITIONS OF ANY KIND, either express or implied.\n// See the License for the specific language governing permissions and\n// limitations under the License.\n\npragma solidity >=0.5.16;\nimport \"./DocuLibrary.sol\";\n\ncontract DocuNet {\n    address university;\n\n    constructor(address _university) public {\n        university = _university;\n    }\n\n    mapping(address => DocuLibrary.Student) public studentLookup;\n    mapping(address => DocuLibrary.Verifier) public verifierLookup;\n    mapping(uint256 => address) internal verifierAddressLookup;\n    mapping(string => address) internal addressLookup;\n    mapping(uint256 => address) internal indexLookup;\n    uint256 studentCount;\n    uint256 numVerifiers;\n\n    // Sign-up function\n    function addStudent(\n        string memory _passport,\n        string memory _name,\n        string memory _email,\n        string memory _pass,\n        string memory _passportHash,\n        string memory _sopHash\n    ) public {\n        require(\n            verifierLookup[msg.sender].adder == address(0),\n            \"You Already Have A Verifier!\"\n        );\n        require(\n            studentLookup[msg.sender].adder == address(0),\n            \"You Already Have An Account!\"\n        );\n        DocuLibrary.Student storage newStudent = studentLookup[msg.sender];\n        newStudent.passport = _passport;\n        newStudent.name = _name;\n        newStudent.email = _email;\n        newStudent.pass = _pass;\n        newStudent.passportHash = _passportHash;\n        newStudent.sopHash = _sopHash;\n        newStudent.adder = msg.sender;\n        newStudent.status = 0;\n        addressLookup[_passport] = msg.sender;\n        indexLookup[studentCount] = msg.sender;\n        studentCount++;\n        emit StudentCreation(_name);\n    }\n\n    // Check if application is complete\n    function checkApplication() internal view returns (bool) {\n        require(\n            studentLookup[msg.sender].adder != address(0),\n            \"You Do Not Have An Account!\"\n        );\n        for (uint256 i = 0; i < numVerifiers; i++) {\n            if (\n                keccak256(\n                    abi.encodePacked(\n                        (studentLookup[msg.sender].creds[i].hasher)\n                    )\n                ) ==\n                keccak256(abi.encodePacked((\"\"))) &&\n                verifierLookup[verifierAddressLookup[i]].approved\n            ) {\n                return false;\n            }\n        }\n        return true;\n    }\n\n    // Get student credentials\n    function getCredsFromIndex(uint256 _id, string memory _passport)\n        public\n        view\n        returns (string memory, string memory)\n    {\n        require(msg.sender == university, \"You Do Not Have Authority!\");\n        if (verifierLookup[verifierAddressLookup[_id]].approved) {\n            return (\n                verifierLookup[verifierAddressLookup[_id]].name,\n                studentLookup[addressLookup[_passport]].creds[_id].hasher\n            );\n        }\n        return (\n            verifierLookup[verifierAddressLookup[_id]].name,\n            \"Not Required\"\n        );\n    }\n\n    // Get student credentials\n    function getCreds(uint256 _id)\n        public\n        view\n        returns (string memory, string memory)\n    {\n        require(\n            studentLookup[msg.sender].adder != address(0) ||\n                msg.sender == university,\n            \"You Do Not Have An Account!\"\n        );\n        if (verifierLookup[verifierAddressLookup[_id]].approved) {\n            return (\n                verifierLookup[verifierAddressLookup[_id]].name,\n                studentLookup[msg.sender].creds[_id].hasher\n            );\n        }\n        return (\n            verifierLookup[verifierAddressLookup[_id]].name,\n            \"Not Required\"\n        );\n    }\n\n    // Submit the application\n    function submitApplication() public {\n        require(\n            studentLookup[msg.sender].adder != address(0),\n            \"You Do Not Have An Account!\"\n        );\n        require(checkApplication(), \"Your Application Is Incomplete!\");\n        studentLookup[msg.sender].status = 1;\n        emit ApplicationSubmitted(studentLookup[msg.sender].name);\n    }\n\n    // Add verifiers to the system\n    function addVerifier(string memory _name) public {\n        require(\n            studentLookup[msg.sender].adder == address(0),\n            \"You Already Have An Account As A Student!\"\n        );\n        require(\n            verifierLookup[msg.sender].adder == address(0),\n            \"You Are Already A Verifier!\"\n        );\n        DocuLibrary.Verifier storage newVerifier = verifierLookup[msg.sender];\n        newVerifier.name = _name;\n        newVerifier.adder = msg.sender;\n        newVerifier.approved = false;\n        verifierAddressLookup[numVerifiers] = msg.sender;\n        numVerifiers++;\n        emit VerifierCreation(_name);\n    }\n\n    // Approve verifier\n    function approveVerifier(uint256 _id) public {\n        require(msg.sender == university, \"You Do Not Have Authority!\");\n        require(\n            verifierAddressLookup[_id] != address(0),\n            \"No Such Verifier Found!\"\n        );\n        address _adder = verifierAddressLookup[_id];\n        verifierLookup[_adder].approved = true;\n        emit VerifierApproved(verifierLookup[_adder].name);\n    }\n\n    // Disapprove verifier\n    function disapproveVerifier(uint256 _id) public {\n        require(msg.sender == university, \"You Do Not Have Authority!\");\n        require(\n            verifierAddressLookup[_id] != address(0),\n            \"No Such Verifier Found!\"\n        );\n        address _adder = verifierAddressLookup[_id];\n        verifierLookup[_adder].approved = false;\n        emit VerifierApproved(verifierLookup[_adder].name);\n    }\n\n    // Reject or accept student\n    function giveDecision(string memory _passport, bool accepted) public {\n        require(msg.sender == university, \"You Do Not Have Authority!\");\n        require(\n            addressLookup[_passport] != address(0),\n            \"No Such Student Exists!\"\n        );\n        address _adder = addressLookup[_passport];\n        require(\n            studentLookup[_adder].status != 0,\n            \"Application Not Completed Yet!\"\n        );\n        if (accepted) {\n            studentLookup[_adder].status = 3;\n        } else {\n            studentLookup[_adder].status = 2;\n        }\n        emit DecisionMade(studentLookup[_adder].name);\n    }\n\n    // Update Student Credentials\n    function updateCredentials(string memory _passport, string memory _hasher)\n        public\n    {\n        require(\n            verifierLookup[msg.sender].adder != address(0),\n            \"You Do Not Have Authority!\"\n        );\n        require(\n            addressLookup[_passport] != address(0),\n            \"No Such Student Exists!\"\n        );\n        address _adder = addressLookup[_passport];\n        require(\n            studentLookup[_adder].status == 0,\n            \"The Application Is Already Submitted.\"\n        );\n        uint256 _id = verifierLookup[msg.sender].id;\n        studentLookup[_adder].creds[_id] = DocuLibrary.File({\n            hasher: _hasher,\n            description: _id,\n            owner: _adder\n        });\n        emit CredentialsUpdated(_passport);\n    }\n\n    // Get student count\n    function getStudentCount() public view returns (uint256) {\n        require(msg.sender == university, \"You Do Not Have Authority!\");\n        return studentCount;\n    }\n\n    // Get verifier count\n    function getVerifierCount() public view returns (uint256) {\n        require(\n            verifierLookup[msg.sender].adder == address(0),\n            \"You Do Not Have Authority!\"\n        );\n        return numVerifiers;\n    }\n\n    // Get student from index\n    function getStudentFromIndex(uint256 _index)\n        public\n        view\n        returns (\n            string memory,\n            string memory,\n            string memory,\n            uint256,\n            string memory,\n            string memory\n        )\n    {\n        require(msg.sender == university, \"You Do Not Have Authority!\");\n        require(indexLookup[_index] != address(0), \"No Such Student Exists!\");\n        address _adder = indexLookup[_index];\n        return (\n            studentLookup[_adder].passport,\n            studentLookup[_adder].name,\n            studentLookup[_adder].email,\n            studentLookup[_adder].status,\n            studentLookup[_adder].passportHash,\n            studentLookup[_adder].sopHash\n        );\n    }\n\n    // Get verifier from index\n    function getVerifierFromIndex(uint256 _index)\n        public\n        view\n        returns (string memory, bool)\n    {\n        require(msg.sender == university, \"You Do Not Have Authority!\");\n        require(\n            verifierAddressLookup[_index] != address(0),\n            \"No Such Verifier Exists!\"\n        );\n        address _adder = verifierAddressLookup[_index];\n        return (verifierLookup[_adder].name, verifierLookup[_adder].approved);\n    }\n\n    // Get student from passport\n    function getStudentFromPassport(string memory _passport)\n        public\n        view\n        returns (\n            string memory,\n            string memory,\n            string memory,\n            uint256,\n            string memory,\n            string memory\n        )\n    {\n        require(msg.sender == university, \"You Do Not Have Authority!\");\n        require(\n            addressLookup[_passport] != address(0),\n            \"No Such Student Exists!\"\n        );\n        address _adder = addressLookup[_passport];\n        return (\n            studentLookup[_adder].passport,\n            studentLookup[_adder].name,\n            studentLookup[_adder].email,\n            studentLookup[_adder].status,\n            studentLookup[_adder].passportHash,\n            studentLookup[_adder].sopHash\n        );\n    }\n\n    // Get student from passport\n    function getStudentInfo()\n        public\n        view\n        returns (\n            string memory,\n            string memory,\n            string memory,\n            uint256,\n            string memory,\n            string memory\n        )\n    {\n        require(\n            studentLookup[msg.sender].adder != address(0),\n            \"You Do Not Have An Account!\"\n        );\n        return (\n            studentLookup[msg.sender].passport,\n            studentLookup[msg.sender].name,\n            studentLookup[msg.sender].email,\n            studentLookup[msg.sender].status,\n            studentLookup[msg.sender].passportHash,\n            studentLookup[msg.sender].sopHash\n        );\n    }\n\n    //Testing methods\n    // function getUniversity() public view returns (address) {\n    //     return university;\n    // }\n\n    // function showSender() public view returns (address) {\n    //     return (msg.sender);\n    // }\n\n    // function showNull() public view returns (address) {\n    //     return verifierLookup[msg.sender].adder;\n    // }\n\n    event StudentCreation(string name);\n    event VerifierCreation(string name);\n    event VerifierApproved(string name);\n    event CredentialsUpdated(string passport);\n    event ApplicationSubmitted(string name);\n    event DecisionMade(string name);\n}\n",
  "sourcePath": "/Users/jaytwwm/Documents/CSE598/Project/contracts/DocuNet.sol",
  "compiler": {
    "name": "solc",
    "version": "0.5.16+commit.9c3226ce.Emscripten.clang"
  },
  "schemaVersion": "3.4.10",
  "updatedAt": "2022-11-28T00:46:19.545Z",
  "networkType": "ethereum",
  "devdoc": {
    "methods": {}
  },
  "userdoc": {
    "methods": {}
  }
}