{
  "contractName": "DocuNet",
  "abi": [
    {
      "inputs": [
        {
          "internalType": "address",
          "name": "_university",
          "type": "address"
        }
      ],
      "payable": false,
      "stateMutability": "nonpayable",
      "type": "constructor"
    },
    {
      "anonymous": false,
      "inputs": [
        {
          "indexed": false,
          "internalType": "string",
          "name": "name",
          "type": "string"
        }
      ],
      "name": "ApplicationSubmitted",
      "type": "event"
    },
    {
      "anonymous": false,
      "inputs": [
        {
          "indexed": false,
          "internalType": "string",
          "name": "passport",
          "type": "string"
        }
      ],
      "name": "CredentialsUpdated",
      "type": "event"
    },
    {
      "anonymous": false,
      "inputs": [
        {
          "indexed": false,
          "internalType": "string",
          "name": "name",
          "type": "string"
        }
      ],
      "name": "DecisionMade",
      "type": "event"
    },
    {
      "anonymous": false,
      "inputs": [
        {
          "indexed": false,
          "internalType": "string",
          "name": "name",
          "type": "string"
        }
      ],
      "name": "StudentCreation",
      "type": "event"
    },
    {
      "anonymous": false,
      "inputs": [
        {
          "indexed": false,
          "internalType": "string",
          "name": "name",
          "type": "string"
        }
      ],
      "name": "VerifierApproved",
      "type": "event"
    },
    {
      "anonymous": false,
      "inputs": [
        {
          "indexed": false,
          "internalType": "string",
          "name": "name",
          "type": "string"
        }
      ],
      "name": "VerifierCreation",
      "type": "event"
    },
    {
      "constant": true,
      "inputs": [
        {
          "internalType": "address",
          "name": "",
          "type": "address"
        }
      ],
      "name": "studentLookup",
      "outputs": [
        {
          "internalType": "address",
          "name": "adder",
          "type": "address"
        },
        {
          "internalType": "string",
          "name": "passport",
          "type": "string"
        },
        {
          "internalType": "string",
          "name": "name",
          "type": "string"
        },
        {
          "internalType": "string",
          "name": "email",
          "type": "string"
        },
        {
          "internalType": "string",
          "name": "pass",
          "type": "string"
        },
        {
          "internalType": "string",
          "name": "passportHash",
          "type": "string"
        },
        {
          "internalType": "string",
          "name": "sopHash",
          "type": "string"
        },
        {
          "internalType": "uint256",
          "name": "status",
          "type": "uint256"
        }
      ],
      "payable": false,
      "stateMutability": "view",
      "type": "function"
    },
    {
      "constant": true,
      "inputs": [
        {
          "internalType": "address",
          "name": "",
          "type": "address"
        }
      ],
      "name": "verifierLookup",
      "outputs": [
        {
          "internalType": "address",
          "name": "adder",
          "type": "address"
        },
        {
          "internalType": "uint256",
          "name": "id",
          "type": "uint256"
        },
        {
          "internalType": "string",
          "name": "name",
          "type": "string"
        },
        {
          "internalType": "bool",
          "name": "approved",
          "type": "bool"
        }
      ],
      "payable": false,
      "stateMutability": "view",
      "type": "function"
    },
    {
      "constant": false,
      "inputs": [
        {
          "internalType": "string",
          "name": "_passport",
          "type": "string"
        },
        {
          "internalType": "string",
          "name": "_name",
          "type": "string"
        },
        {
          "internalType": "string",
          "name": "_email",
          "type": "string"
        },
        {
          "internalType": "string",
          "name": "_pass",
          "type": "string"
        },
        {
          "internalType": "string",
          "name": "_passportHash",
          "type": "string"
        },
        {
          "internalType": "string",
          "name": "_sopHash",
          "type": "string"
        }
      ],
      "name": "addStudent",
      "outputs": [],
      "payable": false,
      "stateMutability": "nonpayable",
      "type": "function"
    },
    {
      "constant": true,
      "inputs": [
        {
          "internalType": "string",
          "name": "_email",
          "type": "string"
        },
        {
          "internalType": "string",
          "name": "_pass",
          "type": "string"
        }
      ],
      "name": "studentLogin",
      "outputs": [
        {
          "internalType": "bool",
          "name": "",
          "type": "bool"
        }
      ],
      "payable": false,
      "stateMutability": "view",
      "type": "function"
    },
    {
      "constant": true,
      "inputs": [
        {
          "internalType": "uint256",
          "name": "_id",
          "type": "uint256"
        },
        {
          "internalType": "string",
          "name": "_passport",
          "type": "string"
        }
      ],
      "name": "getCredsFromIndex",
      "outputs": [
        {
          "internalType": "string",
          "name": "",
          "type": "string"
        },
        {
          "internalType": "string",
          "name": "",
          "type": "string"
        }
      ],
      "payable": false,
      "stateMutability": "view",
      "type": "function"
    },
    {
      "constant": true,
      "inputs": [
        {
          "internalType": "uint256",
          "name": "_id",
          "type": "uint256"
        }
      ],
      "name": "getCreds",
      "outputs": [
        {
          "internalType": "string",
          "name": "",
          "type": "string"
        },
        {
          "internalType": "string",
          "name": "",
          "type": "string"
        }
      ],
      "payable": false,
      "stateMutability": "view",
      "type": "function"
    },
    {
      "constant": false,
      "inputs": [],
      "name": "submitApplication",
      "outputs": [],
      "payable": false,
      "stateMutability": "nonpayable",
      "type": "function"
    },
    {
      "constant": false,
      "inputs": [
        {
          "internalType": "string",
          "name": "_name",
          "type": "string"
        }
      ],
      "name": "addVerifier",
      "outputs": [],
      "payable": false,
      "stateMutability": "nonpayable",
      "type": "function"
    },
    {
      "constant": false,
      "inputs": [
        {
          "internalType": "uint256",
          "name": "_id",
          "type": "uint256"
        }
      ],
      "name": "approveVerifier",
      "outputs": [],
      "payable": false,
      "stateMutability": "nonpayable",
      "type": "function"
    },
    {
      "constant": false,
      "inputs": [
        {
          "internalType": "uint256",
          "name": "_id",
          "type": "uint256"
        }
      ],
      "name": "disapproveVerifier",
      "outputs": [],
      "payable": false,
      "stateMutability": "nonpayable",
      "type": "function"
    },
    {
      "constant": false,
      "inputs": [
        {
          "internalType": "string",
          "name": "_passport",
          "type": "string"
        },
        {
          "internalType": "bool",
          "name": "accepted",
          "type": "bool"
        }
      ],
      "name": "giveDecision",
      "outputs": [],
      "payable": false,
      "stateMutability": "nonpayable",
      "type": "function"
    },
    {
      "constant": false,
      "inputs": [
        {
          "internalType": "string",
          "name": "_passport",
          "type": "string"
        },
        {
          "internalType": "string",
          "name": "_hasher",
          "type": "string"
        }
      ],
      "name": "updateCredentials",
      "outputs": [],
      "payable": false,
      "stateMutability": "nonpayable",
      "type": "function"
    },
    {
      "constant": true,
      "inputs": [],
      "name": "getStudentCount",
      "outputs": [
        {
          "internalType": "uint256",
          "name": "",
          "type": "uint256"
        }
      ],
      "payable": false,
      "stateMutability": "view",
      "type": "function"
    },
    {
      "constant": true,
      "inputs": [],
      "name": "getVerifierCount",
      "outputs": [
        {
          "internalType": "uint256",
          "name": "",
          "type": "uint256"
        }
      ],
      "payable": false,
      "stateMutability": "view",
      "type": "function"
    },
    {
      "constant": true,
      "inputs": [
        {
          "internalType": "uint256",
          "name": "_index",
          "type": "uint256"
        }
      ],
      "name": "getStudentFromIndex",
      "outputs": [
        {
          "internalType": "string",
          "name": "",
          "type": "string"
        },
        {
          "internalType": "string",
          "name": "",
          "type": "string"
        },
        {
          "internalType": "string",
          "name": "",
          "type": "string"
        },
        {
          "internalType": "uint256",
          "name": "",
          "type": "uint256"
        },
        {
          "internalType": "string",
          "name": "",
          "type": "string"
        },
        {
          "internalType": "string",
          "name": "",
          "type": "string"
        }
      ],
      "payable": false,
      "stateMutability": "view",
      "type": "function"
    },
    {
      "constant": true,
      "inputs": [
        {
          "internalType": "uint256",
          "name": "_index",
          "type": "uint256"
        }
      ],
      "name": "getVerifierFromIndex",
      "outputs": [
        {
          "internalType": "string",
          "name": "",
          "type": "string"
        },
        {
          "internalType": "bool",
          "name": "",
          "type": "bool"
        }
      ],
      "payable": false,
      "stateMutability": "view",
      "type": "function"
    },
    {
      "constant": true,
      "inputs": [
        {
          "internalType": "string",
          "name": "_passport",
          "type": "string"
        }
      ],
      "name": "getStudentFromPassport",
      "outputs": [
        {
          "internalType": "string",
          "name": "",
          "type": "string"
        },
        {
          "internalType": "string",
          "name": "",
          "type": "string"
        },
        {
          "internalType": "string",
          "name": "",
          "type": "string"
        },
        {
          "internalType": "uint256",
          "name": "",
          "type": "uint256"
        },
        {
          "internalType": "string",
          "name": "",
          "type": "string"
        },
        {
          "internalType": "string",
          "name": "",
          "type": "string"
        }
      ],
      "payable": false,
      "stateMutability": "view",
      "type": "function"
    },
    {
      "constant": true,
      "inputs": [],
      "name": "getStudentInfo",
      "outputs": [
        {
          "internalType": "string",
          "name": "",
          "type": "string"
        },
        {
          "internalType": "string",
          "name": "",
          "type": "string"
        },
        {
          "internalType": "string",
          "name": "",
          "type": "string"
        },
        {
          "internalType": "uint256",
          "name": "",
          "type": "uint256"
        },
        {
          "internalType": "string",
          "name": "",
          "type": "string"
        },
        {
          "internalType": "string",
          "name": "",
          "type": "string"
        }
      ],
      "payable": false,
      "stateMutability": "view",
      "type": "function"
    }
  ],
  "bytecode": "0x608060405234801561001057600080fd5b50604051613bcd380380613bcd8339818101604052602081101561003357600080fd5b5051600080546001600160a01b039092166001600160a01b0319909216919091179055613b68806100656000396000f3fe608060405234801561001057600080fd5b50600436106101165760003560e01c80638d93532d116100a2578063a45e623f11610071578063a45e623f14610fa6578063b9c688a714610fc3578063c6d3bfc514610fcb578063cc9e3187146110f4578063eb5565f4146110fc57610116565b80638d93532d14610b075780638db09d5214610b24578063a11d211b14610c61578063a1e68c5214610f9e57610116565b806341e0c407116100e957806341e0c407146106a757806346036f54146106c157806355c2c8521461097d5780637d692b5014610a215780637f43642a14610aea57610116565b806301a0339e1461011b5780631a16c966146102a45780631dc47de81461034c57806327cff49314610607575b600080fd5b6101c66004803603604081101561013157600080fd5b81359190810190604081016020820135600160201b81111561015257600080fd5b82018360208201111561016457600080fd5b803590602001918460018302840111600160201b8311171561018557600080fd5b91908080601f016020809104026020016040519081016040528093929190818152602001838380828437600092019190915250929550611119945050505050565b604051808060200180602001838103835285818151815260200191508051906020019080838360005b838110156102075781810151838201526020016101ef565b50505050905090810190601f1680156102345780820380516001836020036101000a031916815260200191505b50838103825284518152845160209182019186019080838360005b8381101561026757818101518382015260200161024f565b50505050905090810190601f1680156102945780820380516001836020036101000a031916815260200191505b5094505050505060405180910390f35b61034a600480360360408110156102ba57600080fd5b810190602081018135600160201b8111156102d457600080fd5b8201836020820111156102e657600080fd5b803590602001918460018302840111600160201b8311171561030757600080fd5b91908080601f016020809104026020016040519081016040528093929190818152602001838380828437600092019190915250929550505050351515905061145c565b005b6103f06004803603602081101561036257600080fd5b810190602081018135600160201b81111561037c57600080fd5b82018360208201111561038e57600080fd5b803590602001918460018302840111600160201b831117156103af57600080fd5b91908080601f01602080910402602001604051908101604052809392919081815260200183838082843760009201919091525092955061175a945050505050565b60405180806020018060200180602001878152602001806020018060200186810386528c818151815260200191508051906020019080838360005b8381101561044357818101518382015260200161042b565b50505050905090810190601f1680156104705780820380516001836020036101000a031916815260200191505b5086810385528b5181528b516020918201918d019080838360005b838110156104a357818101518382015260200161048b565b50505050905090810190601f1680156104d05780820380516001836020036101000a031916815260200191505b5086810384528a5181528a516020918201918c019080838360005b838110156105035781810151838201526020016104eb565b50505050905090810190601f1680156105305780820380516001836020036101000a031916815260200191505b5086810383528851815288516020918201918a019080838360005b8381101561056357818101518382015260200161054b565b50505050905090810190601f1680156105905780820380516001836020036101000a031916815260200191505b50868103825287518152875160209182019189019080838360005b838110156105c35781810151838201526020016105ab565b50505050905090810190601f1680156105f05780820380516001836020036101000a031916815260200191505b509b50505050505050505050505060405180910390f35b6106246004803603602081101561061d57600080fd5b5035611bf4565b604051808060200183151515158152602001828103825284818151815260200191508051906020019080838360005b8381101561066b578181015183820152602001610653565b50505050905090810190601f1680156106985780820380516001836020036101000a031916815260200191505b50935050505060405180910390f35b6106af611d77565b60408051918252519081900360200190f35b6106e7600480360360208110156106d757600080fd5b50356001600160a01b0316611dcd565b60405180896001600160a01b03166001600160a01b0316815260200180602001806020018060200180602001806020018060200188815260200187810387528e818151815260200191508051906020019080838360005b8381101561075657818101518382015260200161073e565b50505050905090810190601f1680156107835780820380516001836020036101000a031916815260200191505b5087810386528d5181528d516020918201918f019080838360005b838110156107b657818101518382015260200161079e565b50505050905090810190601f1680156107e35780820380516001836020036101000a031916815260200191505b5087810385528c5181528c516020918201918e019080838360005b838110156108165781810151838201526020016107fe565b50505050905090810190601f1680156108435780820380516001836020036101000a031916815260200191505b5087810384528b5181528b516020918201918d019080838360005b8381101561087657818101518382015260200161085e565b50505050905090810190601f1680156108a35780820380516001836020036101000a031916815260200191505b5087810383528a5181528a516020918201918c019080838360005b838110156108d65781810151838201526020016108be565b50505050905090810190601f1680156109035780820380516001836020036101000a031916815260200191505b5087810382528951815289516020918201918b019080838360005b8381101561093657818101518382015260200161091e565b50505050905090810190601f1680156109635780820380516001836020036101000a031916815260200191505b509e50505050505050505050505050505060405180910390f35b61034a6004803603602081101561099357600080fd5b810190602081018135600160201b8111156109ad57600080fd5b8201836020820111156109bf57600080fd5b803590602001918460018302840111600160201b831117156109e057600080fd5b91908080601f016020809104026020016040519081016040528093929190818152602001838380828437600092019190915250929550612158945050505050565b610a4760048036036020811015610a3757600080fd5b50356001600160a01b031661231d565b60405180856001600160a01b03166001600160a01b031681526020018481526020018060200183151515158152602001828103825284818151815260200191508051906020019080838360005b83811015610aac578181015183820152602001610a94565b50505050905090810190601f168015610ad95780820380516001836020036101000a031916815260200191505b509550505050505060405180910390f35b61034a60048036036020811015610b0057600080fd5b50356123dc565b61034a60048036036020811015610b1d57600080fd5b503561256e565b610c4d60048036036040811015610b3a57600080fd5b810190602081018135600160201b811115610b5457600080fd5b820183602082011115610b6657600080fd5b803590602001918460018302840111600160201b83111715610b8757600080fd5b91908080601f0160208091040260200160405190810160405280939291908181526020018383808284376000920191909152509295949360208101935035915050600160201b811115610bd957600080fd5b820183602082011115610beb57600080fd5b803590602001918460018302840111600160201b83111715610c0c57600080fd5b91908080601f0160208091040260200160405190810160405280939291908181526020018383808284376000920191909152509295506126cd945050505050565b604080519115158252519081900360200190f35b61034a600480360360c0811015610c7757600080fd5b810190602081018135600160201b811115610c9157600080fd5b820183602082011115610ca357600080fd5b803590602001918460018302840111600160201b83111715610cc457600080fd5b91908080601f0160208091040260200160405190810160405280939291908181526020018383808284376000920191909152509295949360208101935035915050600160201b811115610d1657600080fd5b820183602082011115610d2857600080fd5b803590602001918460018302840111600160201b83111715610d4957600080fd5b91908080601f0160208091040260200160405190810160405280939291908181526020018383808284376000920191909152509295949360208101935035915050600160201b811115610d9b57600080fd5b820183602082011115610dad57600080fd5b803590602001918460018302840111600160201b83111715610dce57600080fd5b91908080601f0160208091040260200160405190810160405280939291908181526020018383808284376000920191909152509295949360208101935035915050600160201b811115610e2057600080fd5b820183602082011115610e3257600080fd5b803590602001918460018302840111600160201b83111715610e5357600080fd5b91908080601f0160208091040260200160405190810160405280939291908181526020018383808284376000920191909152509295949360208101935035915050600160201b811115610ea557600080fd5b820183602082011115610eb757600080fd5b803590602001918460018302840111600160201b83111715610ed857600080fd5b91908080601f0160208091040260200160405190810160405280939291908181526020018383808284376000920191909152509295949360208101935035915050600160201b811115610f2a57600080fd5b820183602082011115610f3c57600080fd5b803590602001918460018302840111600160201b83111715610f5d57600080fd5b91908080601f016020809104026020016040519081016040528093929190818152602001838380828437600092019190915250929550612964945050505050565b6103f0612c25565b6103f060048036036020811015610fbc57600080fd5b5035612f8e565b6106af6130e7565b61034a60048036036040811015610fe157600080fd5b810190602081018135600160201b811115610ffb57600080fd5b82018360208201111561100d57600080fd5b803590602001918460018302840111600160201b8311171561102e57600080fd5b91908080601f0160208091040260200160405190810160405280939291908181526020018383808284376000920191909152509295949360208101935035915050600160201b81111561108057600080fd5b82018360208201111561109257600080fd5b803590602001918460018302840111600160201b831117156110b357600080fd5b91908080601f016020809104026020016040519081016040528093929190818152602001838380828437600092019190915250929550613147945050505050565b61034a613455565b6101c66004803603602081101561111257600080fd5b50356135cd565b60005460609081906001600160a01b0316331461116b576040805162461bcd60e51b815260206004820152601a6024820152600080516020613aa6833981519152604482015290519081900360640190fd5b6000848152600360208181526040808420546001600160a01b031684526002909152909120015460ff161561137b576000848152600360209081526040808320546001600160a01b03168352600280835281842091518751929091019360019390926004928992909182918401908083835b602083106111fc5780518252601f1990920191602091820191016111dd565b518151602093840361010090810a600019908101801990941693909216929092179092529290940196875260408051978890038201909720546001600160a01b031688528781019890985295850160009081208d8252600801885285902088548651600260018316159099029094011696909604601f81018890048802830188019095525083815293948693925084019050828280156112dd5780601f106112b2576101008083540402835291602001916112dd565b820191906000526020600020905b8154815290600101906020018083116112c057829003601f168201915b5050845460408051602060026001851615610100026000190190941693909304601f81018490048402820184019092528181529597508694509250840190508282801561136b5780601f106113405761010080835404028352916020019161136b565b820191906000526020600020905b81548152906001019060200180831161134e57829003601f168201915b5050505050905091509150611455565b6000848152600360209081526040808320546001600160a01b031683526002808352928190208301805482516101006001831615026000190190911694909404601f810184900484028501840190925281845292918391908301828280156114245780601f106113f957610100808354040283529160200191611424565b820191906000526020600020905b81548152906001019060200180831161140757829003601f168201915b505050505090506040518060400160405280600c81526020016b139bdd0814995c5d5a5c995960a21b815250915091505b9250929050565b6000546001600160a01b031633146114a9576040805162461bcd60e51b815260206004820152601a6024820152600080516020613aa6833981519152604482015290519081900360640190fd5b60006001600160a01b03166004836040518082805190602001908083835b602083106114e65780518252601f1990920191602091820191016114c7565b51815160209384036101000a60001901801990921691161790529201948552506040519384900301909220546001600160a01b03169290921415915061156f9050576040805162461bcd60e51b81526020600482015260176024820152764e6f20537563682053747564656e74204578697374732160481b604482015290519081900360640190fd5b60006004836040518082805190602001908083835b602083106115a35780518252601f199092019160209182019101611584565b51815160209384036101000a600019018019909216911617905292019485525060408051948590038201909420546001600160a01b03166000818152600190925293902060070154929350611642915050576040805162461bcd60e51b815260206004820152601e60248201527f4170706c69636174696f6e204e6f7420436f6d706c6574656420596574210000604482015290519081900360640190fd5b811561166d576001600160a01b0381166000908152600160205260409020600360079091015561168e565b6001600160a01b038116600090815260016020526040902060026007909101555b6001600160a01b038116600090815260016020818152604092839020835182815260029182018054948516156101000260001901909416919091049181018290527f03c1f0ac219dbe37dc04d68a7e8bfbc8753e377844955bcec9a6d7f619ed97839390918291820190849080156117475780601f1061171c57610100808354040283529160200191611747565b820191906000526020600020905b81548152906001019060200180831161172a57829003601f168201915b50509250505060405180910390a1505050565b600080546060918291829190829081906001600160a01b031633146117b4576040805162461bcd60e51b815260206004820152601a6024820152600080516020613aa6833981519152604482015290519081900360640190fd5b60006001600160a01b03166004886040518082805190602001908083835b602083106117f15780518252601f1990920191602091820191016117d2565b51815160209384036101000a60001901801990921691161790529201948552506040519384900301909220546001600160a01b03169290921415915061187a9050576040805162461bcd60e51b81526020600482015260176024820152764e6f20537563682053747564656e74204578697374732160481b604482015290519081900360640190fd5b60006004886040518082805190602001908083835b602083106118ae5780518252601f19909201916020918201910161188f565b518151600019602094850361010090810a82019283169219939093169190911790925294909201968752604080519788900382018820546001600160a01b0316600081815260018085529083902060078101548183018054601f600295821615909b0290980190971683900498890186900486028c018601909452878b52919a509398938101975060038101965090946005820194506006909101929188919083018282801561199f5780601f106119745761010080835404028352916020019161199f565b820191906000526020600020905b81548152906001019060200180831161198257829003601f168201915b5050885460408051602060026001851615610100026000190190941693909304601f8101849004840282018401909252818152959b508a945092508401905082828015611a2d5780601f10611a0257610100808354040283529160200191611a2d565b820191906000526020600020905b815481529060010190602001808311611a1057829003601f168201915b5050875460408051602060026001851615610100026000190190941693909304601f8101849004840282018401909252818152959a5089945092508401905082828015611abb5780601f10611a9057610100808354040283529160200191611abb565b820191906000526020600020905b815481529060010190602001808311611a9e57829003601f168201915b5050855460408051602060026001851615610100026000190190941693909304601f810184900484028201840190925281815295995087945092508401905082828015611b495780601f10611b1e57610100808354040283529160200191611b49565b820191906000526020600020905b815481529060010190602001808311611b2c57829003601f168201915b5050845460408051602060026001851615610100026000190190941693909304601f810184900484028201840190925281815295975086945092508401905082828015611bd75780601f10611bac57610100808354040283529160200191611bd7565b820191906000526020600020905b815481529060010190602001808311611bba57829003601f168201915b505050505090509650965096509650965096505091939550919395565b60008054606091906001600160a01b03163314611c46576040805162461bcd60e51b815260206004820152601a6024820152600080516020613aa6833981519152604482015290519081900360640190fd5b6000838152600360205260409020546001600160a01b0316611caf576040805162461bcd60e51b815260206004820152601860248201527f4e6f205375636820566572696669657220457869737473210000000000000000604482015290519081900360640190fd5b6000838152600360208181526040808420546001600160a01b031680855260028084529482902093840154938501805483516101006001831615026000190190911696909604601f81018590048502870185019093528286529094909360ff169290918491830182828015611d655780601f10611d3a57610100808354040283529160200191611d65565b820191906000526020600020905b815481529060010190602001808311611d4857829003601f168201915b5050505050915092509250505b915091565b600080546001600160a01b03163314611dc5576040805162461bcd60e51b815260206004820152601a6024820152600080516020613aa6833981519152604482015290519081900360640190fd5b506006545b90565b600160208181526000928352604092839020805481840180548651600261010097831615979097026000190190911695909504601f81018590048502860185019096528585526001600160a01b0390911694919392909190830182828015611e765780601f10611e4b57610100808354040283529160200191611e76565b820191906000526020600020905b815481529060010190602001808311611e5957829003601f168201915b50505060028085018054604080516020601f6000196101006001871615020190941695909504928301859004850281018501909152818152959695945090925090830182828015611f085780601f10611edd57610100808354040283529160200191611f08565b820191906000526020600020905b815481529060010190602001808311611eeb57829003601f168201915b5050505060038301805460408051602060026001851615610100026000190190941693909304601f8101849004840282018401909252818152949594935090830182828015611f985780601f10611f6d57610100808354040283529160200191611f98565b820191906000526020600020905b815481529060010190602001808311611f7b57829003601f168201915b5050505060048301805460408051602060026001851615610100026000190190941693909304601f81018490048402820184019092528181529495949350908301828280156120285780601f10611ffd57610100808354040283529160200191612028565b820191906000526020600020905b81548152906001019060200180831161200b57829003601f168201915b5050505060058301805460408051602060026001851615610100026000190190941693909304601f81018490048402820184019092528181529495949350908301828280156120b85780601f1061208d576101008083540402835291602001916120b8565b820191906000526020600020905b81548152906001019060200180831161209b57829003601f168201915b5050505060068301805460408051602060026001851615610100026000190190941693909304601f81018490048402820184019092528181529495949350908301828280156121485780601f1061211d57610100808354040283529160200191612148565b820191906000526020600020905b81548152906001019060200180831161212b57829003601f168201915b5050505050908060070154905088565b336000908152600160205260409020546001600160a01b0316156121ad5760405162461bcd60e51b8152600401808060200182810382526029815260200180613ae66029913960400191505060405180910390fd5b336000908152600260205260409020546001600160a01b031615612218576040805162461bcd60e51b815260206004820152601b60248201527f596f752041726520416c72656164792041205665726966696572210000000000604482015290519081900360640190fd5b3360009081526002602081815260409092208351909261223e9284019190850190613a0d565b508054336001600160a01b0319918216811783556003808401805460ff1916905560078054600090815260209283526040808220805490961690941790945580546001019055815181815285518183015285517f215c31a783ca8b56f83cde8304a6a902eff51735c6ed95d42d81a54b0c99529894879492938493840192908601918190849084905b838110156122df5781810151838201526020016122c7565b50505050905090810190601f16801561230c5780820380516001836020036101000a031916815260200191505b509250505060405180910390a15050565b600260208181526000928352604092839020805460018083015483860180548851601f600019958316156101000295909501909116979097049283018690048602870186019097528186526001600160a01b0390921695919492938301828280156123c95780601f1061239e576101008083540402835291602001916123c9565b820191906000526020600020905b8154815290600101906020018083116123ac57829003601f168201915b5050506003909301549192505060ff1684565b6000546001600160a01b03163314612429576040805162461bcd60e51b815260206004820152601a6024820152600080516020613aa6833981519152604482015290519081900360640190fd5b6000818152600360205260409020546001600160a01b031661248c576040805162461bcd60e51b81526020600482015260176024820152764e6f205375636820566572696669657220466f756e642160481b604482015290519081900360640190fd5b6000818152600360208181526040808420546001600160a01b0316808552600280845294829020938401805460ff1916905581518381529385018054600019600182161561010002011695909504928401839052937ffda562e1805568ea4ce9d209a3c1b38dd10b9365f3c9137b0240a9840b111bce93909290918291908201908490801561255c5780601f106125315761010080835404028352916020019161255c565b820191906000526020600020905b81548152906001019060200180831161253f57829003601f168201915b50509250505060405180910390a15050565b6000546001600160a01b031633146125bb576040805162461bcd60e51b815260206004820152601a6024820152600080516020613aa6833981519152604482015290519081900360640190fd5b6000818152600360205260409020546001600160a01b031661261e576040805162461bcd60e51b81526020600482015260176024820152764e6f205375636820566572696669657220466f756e642160481b604482015290519081900360640190fd5b6000818152600360208181526040808420546001600160a01b0316808552600280845294829020938401805460ff191660019081179091558251848152948601805460001992811615610100029290920190911695909504928401839052937ffda562e1805568ea4ce9d209a3c1b38dd10b9365f3c9137b0240a9840b111bce93909290918291908201908490801561255c5780601f106125315761010080835404028352916020019161255c565b336000908152600160205260408120546001600160a01b0316612725576040805162461bcd60e51b815260206004820152601b6024820152600080516020613ac6833981519152604482015290519081900360640190fd5b826040516020018082805190602001908083835b602083106127585780518252601f199092019160209182019101612739565b6001836020036101000a0380198251168184511680821785525050505050509050019150506040516020818303038152906040528051906020012060016000336001600160a01b03166001600160a01b0316815260200190815260200160002060030160405160200180828054600181600116156101000203166002900480156128195780601f106127f7576101008083540402835291820191612819565b820191906000526020600020905b815481529060010190602001808311612805575b50509150506040516020818303038152906040528051906020012014801561294d5750816040516020018082805190602001908083835b6020831061286f5780518252601f199092019160209182019101612850565b6001836020036101000a0380198251168184511680821785525050505050509050019150506040516020818303038152906040528051906020012060016000336001600160a01b03166001600160a01b0316815260200190815260200160002060040160405160200180828054600181600116156101000203166002900480156129305780601f1061290e576101008083540402835291820191612930565b820191906000526020600020905b81548152906001019060200180831161291c575b505091505060405160208183030381529060405280519060200120145b1561295a5750600161295e565b5060005b92915050565b336000908152600260205260409020546001600160a01b0316156129cf576040805162461bcd60e51b815260206004820152601c60248201527f596f7520416c7265616479204861766520412056657269666965722100000000604482015290519081900360640190fd5b336000908152600160205260409020546001600160a01b031615612a3a576040805162461bcd60e51b815260206004820152601c60248201527f596f7520416c7265616479204861766520416e204163636f756e742100000000604482015290519081900360640190fd5b33600090815260016020818152604090922088519092612a6092840191908a0190613a0d565b508551612a769060028301906020890190613a0d565b508451612a8c9060038301906020880190613a0d565b508351612aa29060048301906020870190613a0d565b508251612ab89060058301906020860190613a0d565b508151612ace9060068301906020850190613a0d565b5080546001600160a01b0319163390811782556000600783015560405188516004918a91819060208401908083835b60208310612b1c5780518252601f199092019160209182019101612afd565b51815160001960209485036101000a0190811690199190911617905292019485525060408051948590038201852080546001600160a01b03979097166001600160a01b03199788161790556006805460009081526005845282812080549098163317909755805460010190558185528b51858301528b517f7e7dd9f583f3c3a3d2a5efa6d2860c40115a578c292e0cbf994267edc2c02686968d969550859450918401928601918190849084905b83811015612be2578181015183820152602001612bca565b50505050905090810190601f168015612c0f5780820380516001836020036101000a031916815260200191505b509250505060405180910390a150505050505050565b336000908152600160205260408120546060918291829190829081906001600160a01b0316612c89576040805162461bcd60e51b815260206004820152601b6024820152600080516020613ac6833981519152604482015290519081900360640190fd5b336000908152600160208181526040928390206007810154818401805486516002968216156101000260001901909116869004601f8101869004860282018601909752868152909594830194600384019492936005810193600690910192918891830182828015612d3b5780601f10612d1057610100808354040283529160200191612d3b565b820191906000526020600020905b815481529060010190602001808311612d1e57829003601f168201915b5050885460408051602060026001851615610100026000190190941693909304601f8101849004840282018401909252818152959b508a945092508401905082828015612dc95780601f10612d9e57610100808354040283529160200191612dc9565b820191906000526020600020905b815481529060010190602001808311612dac57829003601f168201915b5050875460408051602060026001851615610100026000190190941693909304601f8101849004840282018401909252818152959a5089945092508401905082828015612e575780601f10612e2c57610100808354040283529160200191612e57565b820191906000526020600020905b815481529060010190602001808311612e3a57829003601f168201915b5050855460408051602060026001851615610100026000190190941693909304601f810184900484028201840190925281815295995087945092508401905082828015612ee55780601f10612eba57610100808354040283529160200191612ee5565b820191906000526020600020905b815481529060010190602001808311612ec857829003601f168201915b5050845460408051602060026001851615610100026000190190941693909304601f810184900484028201840190925281815295975086945092508401905082828015612f735780601f10612f4857610100808354040283529160200191612f73565b820191906000526020600020905b815481529060010190602001808311612f5657829003601f168201915b50505050509050955095509550955095509550909192939495565b600080546060918291829190829081906001600160a01b03163314612fe8576040805162461bcd60e51b815260206004820152601a6024820152600080516020613aa6833981519152604482015290519081900360640190fd5b6000878152600560205260409020546001600160a01b031661304b576040805162461bcd60e51b81526020600482015260176024820152764e6f20537563682053747564656e74204578697374732160481b604482015290519081900360640190fd5b6000878152600560208181526040808420546001600160a01b031680855260018084529482902060078101548187018054855160026101009a8316159a909a0260001901909116899004601f81018890048802820188019096528581529397909690830195600384019592949184019360060192889183018282801561199f5780601f106119745761010080835404028352916020019161199f565b336000908152600260205260408120546001600160a01b031615613140576040805162461bcd60e51b815260206004820152601a6024820152600080516020613aa6833981519152604482015290519081900360640190fd5b5060075490565b336000908152600260205260409020546001600160a01b031661319f576040805162461bcd60e51b815260206004820152601a6024820152600080516020613aa6833981519152604482015290519081900360640190fd5b60006001600160a01b03166004836040518082805190602001908083835b602083106131dc5780518252601f1990920191602091820191016131bd565b51815160209384036101000a60001901801990921691161790529201948552506040519384900301909220546001600160a01b0316929092141591506132659050576040805162461bcd60e51b81526020600482015260176024820152764e6f20537563682053747564656e74204578697374732160481b604482015290519081900360640190fd5b60006004836040518082805190602001908083835b602083106132995780518252601f19909201916020918201910161327a565b51815160209384036101000a600019018019909216911617905292019485525060408051948590038201909420546001600160a01b0316600081815260019092529390206007015492935050901590506133245760405162461bcd60e51b8152600401808060200182810382526025815260200180613b0f6025913960400191505060405180910390fd5b33600090815260026020908152604080832060019081015482516060810184528781528085018290526001600160a01b03871681850181905286529184528285208186526008018452919093208351805192949391926133879284920190613a0d565b506020828101516001830155604092830151600290920180546001600160a01b0319166001600160a01b0390931692909217909155815181815286518183015286517ff035459b4cfde02b609060400206da448ce82b15a74849d011a252df4e5580cb9388938392918301919085019080838360005b838110156134155781810151838201526020016133fd565b50505050905090810190601f1680156134425780820380516001836020036101000a031916815260200191505b509250505060405180910390a150505050565b336000908152600160205260409020546001600160a01b03166134ad576040805162461bcd60e51b815260206004820152601b6024820152600080516020613ac6833981519152604482015290519081900360640190fd5b6134b56138af565b613506576040805162461bcd60e51b815260206004820152601f60248201527f596f7572204170706c69636174696f6e20497320496e636f6d706c6574652100604482015290519081900360640190fd5b3360009081526001602081815260409283902060078101839055835182815260029182018054948516156101000260001901909416919091049181018290527f6bfbd9607f1060790a41eb85cefa0ef6698a904068df0e40af34b1e0dec1a4f49390918291820190849080156135bd5780601f10613592576101008083540402835291602001916135bd565b820191906000526020600020905b8154815290600101906020018083116135a057829003601f168201915b50509250505060405180910390a1565b3360009081526001602052604090205460609081906001600160a01b031615158061360257506000546001600160a01b031633145b613641576040805162461bcd60e51b815260206004820152601b6024820152600080516020613ac6833981519152604482015290519081900360640190fd5b6000838152600360208181526040808420546001600160a01b031684526002909152909120015460ff16156137d1576000838152600360209081526040808320546001600160a01b0316835260028083528184203385526001808552838620898752600801855294839020908201805484516101009782161597909702600019011692909204601f810185900485028601850190935282855290939092909184918301828280156137335780601f1061370857610100808354040283529160200191613733565b820191906000526020600020905b81548152906001019060200180831161371657829003601f168201915b5050845460408051602060026001851615610100026000190190941693909304601f8101849004840282018401909252818152959750869450925084019050828280156137c15780601f10613796576101008083540402835291602001916137c1565b820191906000526020600020905b8154815290600101906020018083116137a457829003601f168201915b5050505050905091509150611d72565b6000838152600360209081526040808320546001600160a01b031683526002808352928190208301805482516101006001831615026000190190911694909404601f8101849004840285018401909252818452929183919083018282801561387a5780601f1061384f5761010080835404028352916020019161387a565b820191906000526020600020905b81548152906001019060200180831161385d57829003601f168201915b505050505090506040518060400160405280600c81526020016b139bdd0814995c5d5a5c995960a21b81525091509150915091565b336000908152600160205260408120546001600160a01b0316613907576040805162461bcd60e51b815260206004820152601b6024820152600080516020613ac6833981519152604482015290519081900360640190fd5b60005b600754811015613a05576040805160008082526020808301808552835190203383526001808352858420878552600801909252918490208054929490930191829184916002918116156101000260001901160480156139a05780601f1061397e5761010080835404028352918201916139a0565b820191906000526020600020905b81548152906001019060200180831161398c575b5050915050604051602081830303815290604052805190602001201480156139ee57506000818152600360208181526040808420546001600160a01b031684526002909152909120015460ff165b156139fd576000915050611dca565b60010161390a565b506001905090565b828054600181600116156101000203166002900490600052602060002090601f016020900481019282601f10613a4e57805160ff1916838001178555613a7b565b82800160010185558215613a7b579182015b82811115613a7b578251825591602001919060010190613a60565b50613a87929150613a8b565b5090565b611dca91905b80821115613a875760008155600101613a9156fe596f7520446f204e6f74204861766520417574686f7269747921000000000000596f7520446f204e6f74204861766520416e204163636f756e74210000000000596f7520416c7265616479204861766520416e204163636f756e7420417320412053747564656e7421546865204170706c69636174696f6e20497320416c7265616479205375626d69747465642ea265627a7a7231582080a022650fa8640327ab4341e5c5a56d43748021518c03c7d4a436cce8ef38b764736f6c63430005100032",
  "source": "// SPDX-License-Identifier: Apache-2.0\n//\n// Copyright 2022 Jay Dinesh Mehta\n//\n// Licensed under the Apache License, Version 2.0 (the \"License\");\n// you may not use this file except in compliance with the License.\n// You may obtain a copy of the License at\n//\n// http://www.apache.org/licenses/LICENSE-2.0\n//\n// Unless required by applicable law or agreed to in writing, software\n// distributed under the License is distributed on an \"AS IS\" BASIS,\n// WITHOUT WARRANTIES OR CONDITIONS OF ANY KIND, either express or implied.\n// See the License for the specific language governing permissions and\n// limitations under the License.\n\npragma solidity >=0.5.16;\nimport \"./DocuLibrary.sol\";\n\ncontract DocuNet {\n    address university;\n\n    constructor(address _university) public {\n        university = _university;\n    }\n\n    mapping(address => DocuLibrary.Student) public studentLookup;\n    mapping(address => DocuLibrary.Verifier) public verifierLookup;\n    mapping(uint256 => address) internal verifierAddressLookup;\n    mapping(string => address) internal addressLookup;\n    mapping(uint256 => address) internal indexLookup;\n    uint256 studentCount;\n    uint256 numVerifiers;\n\n    // Sign-up function\n    function addStudent(\n        string memory _passport,\n        string memory _name,\n        string memory _email,\n        string memory _pass,\n        string memory _passportHash,\n        string memory _sopHash\n    ) public {\n        require(\n            verifierLookup[msg.sender].adder == address(0),\n            \"You Already Have A Verifier!\"\n        );\n        require(\n            studentLookup[msg.sender].adder == address(0),\n            \"You Already Have An Account!\"\n        );\n        DocuLibrary.Student storage newStudent = studentLookup[msg.sender];\n        newStudent.passport = _passport;\n        newStudent.name = _name;\n        newStudent.email = _email;\n        newStudent.pass = _pass;\n        newStudent.passportHash = _passportHash;\n        newStudent.sopHash = _sopHash;\n        newStudent.adder = msg.sender;\n        newStudent.status = 0;\n        addressLookup[_passport] = msg.sender;\n        indexLookup[studentCount] = msg.sender;\n        studentCount++;\n        emit StudentCreation(_name);\n    }\n\n    // Verify Student Login\n    function studentLogin(string memory _email, string memory _pass) public view returns (bool) {\n        require(\n            studentLookup[msg.sender].adder != address(0),\n            \"You Do Not Have An Account!\"\n        );\n        if(keccak256(abi.encodePacked((studentLookup[msg.sender].email))) == keccak256(abi.encodePacked((_email))) && keccak256(abi.encodePacked((studentLookup[msg.sender].pass))) == keccak256(abi.encodePacked((_pass)))) {\n            return true;\n        }\n        return false;\n    }\n\n    // Check if application is complete\n    function checkApplication() internal view returns (bool) {\n        require(\n            studentLookup[msg.sender].adder != address(0),\n            \"You Do Not Have An Account!\"\n        );\n        for (uint256 i = 0; i < numVerifiers; i++) {\n            if (\n                keccak256(\n                    abi.encodePacked(\n                        (studentLookup[msg.sender].creds[i].hasher)\n                    )\n                ) ==\n                keccak256(abi.encodePacked((\"\"))) &&\n                verifierLookup[verifierAddressLookup[i]].approved\n            ) {\n                return false;\n            }\n        }\n        return true;\n    }\n\n    // Get student credentials\n    function getCredsFromIndex(uint256 _id, string memory _passport)\n        public\n        view\n        returns (string memory, string memory)\n    {\n        require(msg.sender == university, \"You Do Not Have Authority!\");\n        if (verifierLookup[verifierAddressLookup[_id]].approved) {\n            return (\n                verifierLookup[verifierAddressLookup[_id]].name,\n                studentLookup[addressLookup[_passport]].creds[_id].hasher\n            );\n        }\n        return (\n            verifierLookup[verifierAddressLookup[_id]].name,\n            \"Not Required\"\n        );\n    }\n\n    // Get student credentials\n    function getCreds(uint256 _id)\n        public\n        view\n        returns (string memory, string memory)\n    {\n        require(\n            studentLookup[msg.sender].adder != address(0) ||\n                msg.sender == university,\n            \"You Do Not Have An Account!\"\n        );\n        if (verifierLookup[verifierAddressLookup[_id]].approved) {\n            return (\n                verifierLookup[verifierAddressLookup[_id]].name,\n                studentLookup[msg.sender].creds[_id].hasher\n            );\n        }\n        return (\n            verifierLookup[verifierAddressLookup[_id]].name,\n            \"Not Required\"\n        );\n    }\n\n    // Submit the application\n    function submitApplication() public {\n        require(\n            studentLookup[msg.sender].adder != address(0),\n            \"You Do Not Have An Account!\"\n        );\n        require(checkApplication(), \"Your Application Is Incomplete!\");\n        studentLookup[msg.sender].status = 1;\n        emit ApplicationSubmitted(studentLookup[msg.sender].name);\n    }\n\n    // Add verifiers to the system\n    function addVerifier(string memory _name) public {\n        require(\n            studentLookup[msg.sender].adder == address(0),\n            \"You Already Have An Account As A Student!\"\n        );\n        require(\n            verifierLookup[msg.sender].adder == address(0),\n            \"You Are Already A Verifier!\"\n        );\n        DocuLibrary.Verifier storage newVerifier = verifierLookup[msg.sender];\n        newVerifier.name = _name;\n        newVerifier.adder = msg.sender;\n        newVerifier.approved = false;\n        verifierAddressLookup[numVerifiers] = msg.sender;\n        numVerifiers++;\n        emit VerifierCreation(_name);\n    }\n\n    // Approve verifier\n    function approveVerifier(uint256 _id) public {\n        require(msg.sender == university, \"You Do Not Have Authority!\");\n        require(\n            verifierAddressLookup[_id] != address(0),\n            \"No Such Verifier Found!\"\n        );\n        address _adder = verifierAddressLookup[_id];\n        verifierLookup[_adder].approved = true;\n        emit VerifierApproved(verifierLookup[_adder].name);\n    }\n\n    // Disapprove verifier\n    function disapproveVerifier(uint256 _id) public {\n        require(msg.sender == university, \"You Do Not Have Authority!\");\n        require(\n            verifierAddressLookup[_id] != address(0),\n            \"No Such Verifier Found!\"\n        );\n        address _adder = verifierAddressLookup[_id];\n        verifierLookup[_adder].approved = false;\n        emit VerifierApproved(verifierLookup[_adder].name);\n    }\n\n    // Reject or accept student\n    function giveDecision(string memory _passport, bool accepted) public {\n        require(msg.sender == university, \"You Do Not Have Authority!\");\n        require(\n            addressLookup[_passport] != address(0),\n            \"No Such Student Exists!\"\n        );\n        address _adder = addressLookup[_passport];\n        require(\n            studentLookup[_adder].status != 0,\n            \"Application Not Completed Yet!\"\n        );\n        if (accepted) {\n            studentLookup[_adder].status = 3;\n        } else {\n            studentLookup[_adder].status = 2;\n        }\n        emit DecisionMade(studentLookup[_adder].name);\n    }\n\n    // Update Student Credentials\n    function updateCredentials(string memory _passport, string memory _hasher)\n        public\n    {\n        require(\n            verifierLookup[msg.sender].adder != address(0),\n            \"You Do Not Have Authority!\"\n        );\n        require(\n            addressLookup[_passport] != address(0),\n            \"No Such Student Exists!\"\n        );\n        address _adder = addressLookup[_passport];\n        require(\n            studentLookup[_adder].status == 0,\n            \"The Application Is Already Submitted.\"\n        );\n        uint256 _id = verifierLookup[msg.sender].id;\n        studentLookup[_adder].creds[_id] = DocuLibrary.File({\n            hasher: _hasher,\n            description: _id,\n            owner: _adder\n        });\n        emit CredentialsUpdated(_passport);\n    }\n\n    // Get student count\n    function getStudentCount() public view returns (uint256) {\n        require(msg.sender == university, \"You Do Not Have Authority!\");\n        return studentCount;\n    }\n\n    // Get verifier count\n    function getVerifierCount() public view returns (uint256) {\n        require(\n            verifierLookup[msg.sender].adder == address(0),\n            \"You Do Not Have Authority!\"\n        );\n        return numVerifiers;\n    }\n\n    // Get student from index\n    function getStudentFromIndex(uint256 _index)\n        public\n        view\n        returns (\n            string memory,\n            string memory,\n            string memory,\n            uint256,\n            string memory,\n            string memory\n        )\n    {\n        require(msg.sender == university, \"You Do Not Have Authority!\");\n        require(indexLookup[_index] != address(0), \"No Such Student Exists!\");\n        address _adder = indexLookup[_index];\n        return (\n            studentLookup[_adder].passport,\n            studentLookup[_adder].name,\n            studentLookup[_adder].email,\n            studentLookup[_adder].status,\n            studentLookup[_adder].passportHash,\n            studentLookup[_adder].sopHash\n        );\n    }\n\n    // Get verifier from index\n    function getVerifierFromIndex(uint256 _index)\n        public\n        view\n        returns (string memory, bool)\n    {\n        require(msg.sender == university, \"You Do Not Have Authority!\");\n        require(\n            verifierAddressLookup[_index] != address(0),\n            \"No Such Verifier Exists!\"\n        );\n        address _adder = verifierAddressLookup[_index];\n        return (verifierLookup[_adder].name, verifierLookup[_adder].approved);\n    }\n\n    // Get student from passport\n    function getStudentFromPassport(string memory _passport)\n        public\n        view\n        returns (\n            string memory,\n            string memory,\n            string memory,\n            uint256,\n            string memory,\n            string memory\n        )\n    {\n        require(msg.sender == university, \"You Do Not Have Authority!\");\n        require(\n            addressLookup[_passport] != address(0),\n            \"No Such Student Exists!\"\n        );\n        address _adder = addressLookup[_passport];\n        return (\n            studentLookup[_adder].passport,\n            studentLookup[_adder].name,\n            studentLookup[_adder].email,\n            studentLookup[_adder].status,\n            studentLookup[_adder].passportHash,\n            studentLookup[_adder].sopHash\n        );\n    }\n\n    // Get student from passport\n    function getStudentInfo()\n        public\n        view\n        returns (\n            string memory,\n            string memory,\n            string memory,\n            uint256,\n            string memory,\n            string memory\n        )\n    {\n        require(\n            studentLookup[msg.sender].adder != address(0),\n            \"You Do Not Have An Account!\"\n        );\n        return (\n            studentLookup[msg.sender].passport,\n            studentLookup[msg.sender].name,\n            studentLookup[msg.sender].email,\n            studentLookup[msg.sender].status,\n            studentLookup[msg.sender].passportHash,\n            studentLookup[msg.sender].sopHash\n        );\n    }\n\n    //Testing methods\n    // function getUniversity() public view returns (address) {\n    //     return university;\n    // }\n\n    // function showSender() public view returns (address) {\n    //     return (msg.sender);\n    // }\n\n    // function showNull() public view returns (address) {\n    //     return verifierLookup[msg.sender].adder;\n    // }\n\n    event StudentCreation(string name);\n    event VerifierCreation(string name);\n    event VerifierApproved(string name);\n    event CredentialsUpdated(string passport);\n    event ApplicationSubmitted(string name);\n    event DecisionMade(string name);\n}\n",
  "sourcePath": "/Users/jaytwwm/Documents/CSE598/Project/contracts/DocuNet.sol",
  "compiler": {
    "name": "solc",
    "version": "0.5.16+commit.9c3226ce.Emscripten.clang"
  },
  "schemaVersion": "3.4.10",
  "updatedAt": "2022-11-28T01:05:18.003Z",
  "networkType": "ethereum",
  "devdoc": {
    "methods": {}
  },
  "userdoc": {
    "methods": {}
  }
}