{
  "contractName": "DocuNet",
  "abi": [
    {
      "inputs": [
        {
          "internalType": "address",
          "name": "_university",
          "type": "address"
        }
      ],
      "payable": false,
      "stateMutability": "nonpayable",
      "type": "constructor"
    },
    {
      "anonymous": false,
      "inputs": [
        {
          "indexed": false,
          "internalType": "string",
          "name": "name",
          "type": "string"
        }
      ],
      "name": "ApplicationSubmitted",
      "type": "event"
    },
    {
      "anonymous": false,
      "inputs": [
        {
          "indexed": false,
          "internalType": "string",
          "name": "passport",
          "type": "string"
        }
      ],
      "name": "CredentialsUpdated",
      "type": "event"
    },
    {
      "anonymous": false,
      "inputs": [
        {
          "indexed": false,
          "internalType": "string",
          "name": "name",
          "type": "string"
        }
      ],
      "name": "DecisionMade",
      "type": "event"
    },
    {
      "anonymous": false,
      "inputs": [
        {
          "indexed": false,
          "internalType": "string",
          "name": "name",
          "type": "string"
        }
      ],
      "name": "StudentCreation",
      "type": "event"
    },
    {
      "anonymous": false,
      "inputs": [
        {
          "indexed": false,
          "internalType": "string",
          "name": "name",
          "type": "string"
        }
      ],
      "name": "VerifierApproved",
      "type": "event"
    },
    {
      "anonymous": false,
      "inputs": [
        {
          "indexed": false,
          "internalType": "string",
          "name": "name",
          "type": "string"
        }
      ],
      "name": "VerifierCreation",
      "type": "event"
    },
    {
      "constant": true,
      "inputs": [
        {
          "internalType": "address",
          "name": "",
          "type": "address"
        }
      ],
      "name": "studentLookup",
      "outputs": [
        {
          "internalType": "address",
          "name": "adder",
          "type": "address"
        },
        {
          "internalType": "string",
          "name": "passport",
          "type": "string"
        },
        {
          "internalType": "string",
          "name": "name",
          "type": "string"
        },
        {
          "internalType": "string",
          "name": "email",
          "type": "string"
        },
        {
          "internalType": "string",
          "name": "pass",
          "type": "string"
        },
        {
          "internalType": "string",
          "name": "passportHash",
          "type": "string"
        },
        {
          "internalType": "string",
          "name": "sopHash",
          "type": "string"
        },
        {
          "internalType": "uint256",
          "name": "status",
          "type": "uint256"
        }
      ],
      "payable": false,
      "stateMutability": "view",
      "type": "function"
    },
    {
      "constant": true,
      "inputs": [
        {
          "internalType": "address",
          "name": "",
          "type": "address"
        }
      ],
      "name": "verifierLookup",
      "outputs": [
        {
          "internalType": "address",
          "name": "adder",
          "type": "address"
        },
        {
          "internalType": "uint256",
          "name": "id",
          "type": "uint256"
        },
        {
          "internalType": "string",
          "name": "name",
          "type": "string"
        },
        {
          "internalType": "bool",
          "name": "approved",
          "type": "bool"
        }
      ],
      "payable": false,
      "stateMutability": "view",
      "type": "function"
    },
    {
      "constant": false,
      "inputs": [
        {
          "internalType": "string",
          "name": "_passport",
          "type": "string"
        },
        {
          "internalType": "string",
          "name": "_name",
          "type": "string"
        },
        {
          "internalType": "string",
          "name": "_email",
          "type": "string"
        },
        {
          "internalType": "string",
          "name": "_pass",
          "type": "string"
        },
        {
          "internalType": "string",
          "name": "_passportHash",
          "type": "string"
        },
        {
          "internalType": "string",
          "name": "_sopHash",
          "type": "string"
        }
      ],
      "name": "addStudent",
      "outputs": [],
      "payable": false,
      "stateMutability": "nonpayable",
      "type": "function"
    },
    {
      "constant": false,
      "inputs": [],
      "name": "submitApplication",
      "outputs": [],
      "payable": false,
      "stateMutability": "nonpayable",
      "type": "function"
    },
    {
      "constant": false,
      "inputs": [
        {
          "internalType": "string",
          "name": "_name",
          "type": "string"
        }
      ],
      "name": "addVerifier",
      "outputs": [],
      "payable": false,
      "stateMutability": "nonpayable",
      "type": "function"
    },
    {
      "constant": false,
      "inputs": [
        {
          "internalType": "uint256",
          "name": "_id",
          "type": "uint256"
        }
      ],
      "name": "approveVerifier",
      "outputs": [],
      "payable": false,
      "stateMutability": "nonpayable",
      "type": "function"
    },
    {
      "constant": false,
      "inputs": [
        {
          "internalType": "string",
          "name": "_passport",
          "type": "string"
        },
        {
          "internalType": "bool",
          "name": "accepted",
          "type": "bool"
        }
      ],
      "name": "giveDecision",
      "outputs": [],
      "payable": false,
      "stateMutability": "nonpayable",
      "type": "function"
    },
    {
      "constant": false,
      "inputs": [
        {
          "internalType": "string",
          "name": "_passport",
          "type": "string"
        },
        {
          "internalType": "string",
          "name": "_hasher",
          "type": "string"
        }
      ],
      "name": "updateCredentials",
      "outputs": [],
      "payable": false,
      "stateMutability": "nonpayable",
      "type": "function"
    },
    {
      "constant": true,
      "inputs": [],
      "name": "getStudentCount",
      "outputs": [
        {
          "internalType": "uint256",
          "name": "",
          "type": "uint256"
        }
      ],
      "payable": false,
      "stateMutability": "view",
      "type": "function"
    },
    {
      "constant": true,
      "inputs": [],
      "name": "getVerifierCount",
      "outputs": [
        {
          "internalType": "uint256",
          "name": "",
          "type": "uint256"
        }
      ],
      "payable": false,
      "stateMutability": "view",
      "type": "function"
    },
    {
      "constant": true,
      "inputs": [
        {
          "internalType": "uint256",
          "name": "_index",
          "type": "uint256"
        }
      ],
      "name": "getStudentFromIndex",
      "outputs": [
        {
          "internalType": "string",
          "name": "",
          "type": "string"
        },
        {
          "internalType": "string",
          "name": "",
          "type": "string"
        },
        {
          "internalType": "string",
          "name": "",
          "type": "string"
        },
        {
          "internalType": "uint256",
          "name": "",
          "type": "uint256"
        },
        {
          "internalType": "string",
          "name": "",
          "type": "string"
        },
        {
          "internalType": "string",
          "name": "",
          "type": "string"
        }
      ],
      "payable": false,
      "stateMutability": "view",
      "type": "function"
    },
    {
      "constant": true,
      "inputs": [
        {
          "internalType": "uint256",
          "name": "_index",
          "type": "uint256"
        }
      ],
      "name": "getVerifierFromIndex",
      "outputs": [
        {
          "internalType": "string",
          "name": "",
          "type": "string"
        },
        {
          "internalType": "bool",
          "name": "",
          "type": "bool"
        }
      ],
      "payable": false,
      "stateMutability": "view",
      "type": "function"
    },
    {
      "constant": true,
      "inputs": [
        {
          "internalType": "string",
          "name": "_passport",
          "type": "string"
        }
      ],
      "name": "getStudentFromPassport",
      "outputs": [
        {
          "internalType": "string",
          "name": "",
          "type": "string"
        },
        {
          "internalType": "string",
          "name": "",
          "type": "string"
        },
        {
          "internalType": "string",
          "name": "",
          "type": "string"
        },
        {
          "internalType": "uint256",
          "name": "",
          "type": "uint256"
        },
        {
          "internalType": "string",
          "name": "",
          "type": "string"
        },
        {
          "internalType": "string",
          "name": "",
          "type": "string"
        }
      ],
      "payable": false,
      "stateMutability": "view",
      "type": "function"
    }
  ],
  "bytecode": "0x608060405234801561001057600080fd5b50604051612ad7380380612ad78339818101604052602081101561003357600080fd5b5051600080546001600160a01b039092166001600160a01b0319909216919091179055612a72806100656000396000f3fe608060405234801561001057600080fd5b50600436106100cf5760003560e01c80637d692b501161008c578063a45e623f11610066578063a45e623f14610c74578063b9c688a714610c91578063c6d3bfc514610c99578063cc9e318714610dc2576100cf565b80637d692b50146108515780638d93532d1461091a578063a11d211b14610937576100cf565b80631a16c966146100d45780631dc47de81461017c57806327cff4931461043757806341e0c407146104d757806346036f54146104f157806355c2c852146107ad575b600080fd5b61017a600480360360408110156100ea57600080fd5b810190602081018135600160201b81111561010457600080fd5b82018360208201111561011657600080fd5b803590602001918460018302840111600160201b8311171561013757600080fd5b91908080601f0160208091040260200160405190810160405280939291908181526020018383808284376000920191909152509295505050503515159050610dca565b005b6102206004803603602081101561019257600080fd5b810190602081018135600160201b8111156101ac57600080fd5b8201836020820111156101be57600080fd5b803590602001918460018302840111600160201b831117156101df57600080fd5b91908080601f0160208091040260200160405190810160405280939291908181526020018383808284376000920191909152509295506110cf945050505050565b60405180806020018060200180602001878152602001806020018060200186810386528c818151815260200191508051906020019080838360005b8381101561027357818101518382015260200161025b565b50505050905090810190601f1680156102a05780820380516001836020036101000a031916815260200191505b5086810385528b5181528b516020918201918d019080838360005b838110156102d35781810151838201526020016102bb565b50505050905090810190601f1680156103005780820380516001836020036101000a031916815260200191505b5086810384528a5181528a516020918201918c019080838360005b8381101561033357818101518382015260200161031b565b50505050905090810190601f1680156103605780820380516001836020036101000a031916815260200191505b5086810383528851815288516020918201918a019080838360005b8381101561039357818101518382015260200161037b565b50505050905090810190601f1680156103c05780820380516001836020036101000a031916815260200191505b50868103825287518152875160209182019189019080838360005b838110156103f35781810151838201526020016103db565b50505050905090810190601f1680156104205780820380516001836020036101000a031916815260200191505b509b50505050505050505050505060405180910390f35b6104546004803603602081101561044d57600080fd5b5035611569565b604051808060200183151515158152602001828103825284818151815260200191508051906020019080838360005b8381101561049b578181015183820152602001610483565b50505050905090810190601f1680156104c85780820380516001836020036101000a031916815260200191505b50935050505060405180910390f35b6104df6116eb565b60408051918252519081900360200190f35b6105176004803603602081101561050757600080fd5b50356001600160a01b0316611741565b60405180896001600160a01b03166001600160a01b0316815260200180602001806020018060200180602001806020018060200188815260200187810387528e818151815260200191508051906020019080838360005b8381101561058657818101518382015260200161056e565b50505050905090810190601f1680156105b35780820380516001836020036101000a031916815260200191505b5087810386528d5181528d516020918201918f019080838360005b838110156105e65781810151838201526020016105ce565b50505050905090810190601f1680156106135780820380516001836020036101000a031916815260200191505b5087810385528c5181528c516020918201918e019080838360005b8381101561064657818101518382015260200161062e565b50505050905090810190601f1680156106735780820380516001836020036101000a031916815260200191505b5087810384528b5181528b516020918201918d019080838360005b838110156106a657818101518382015260200161068e565b50505050905090810190601f1680156106d35780820380516001836020036101000a031916815260200191505b5087810383528a5181528a516020918201918c019080838360005b838110156107065781810151838201526020016106ee565b50505050905090810190601f1680156107335780820380516001836020036101000a031916815260200191505b5087810382528951815289516020918201918b019080838360005b8381101561076657818101518382015260200161074e565b50505050905090810190601f1680156107935780820380516001836020036101000a031916815260200191505b509e50505050505050505050505050505060405180910390f35b61017a600480360360208110156107c357600080fd5b810190602081018135600160201b8111156107dd57600080fd5b8201836020820111156107ef57600080fd5b803590602001918460018302840111600160201b8311171561081057600080fd5b91908080601f016020809104026020016040519081016040528093929190818152602001838380828437600092019190915250929550611acc945050505050565b6108776004803603602081101561086757600080fd5b50356001600160a01b0316611c91565b60405180856001600160a01b03166001600160a01b031681526020018481526020018060200183151515158152602001828103825284818151815260200191508051906020019080838360005b838110156108dc5781810151838201526020016108c4565b50505050905090810190601f1680156109095780820380516001836020036101000a031916815260200191505b509550505050505060405180910390f35b61017a6004803603602081101561093057600080fd5b5035611d50565b61017a600480360360c081101561094d57600080fd5b810190602081018135600160201b81111561096757600080fd5b82018360208201111561097957600080fd5b803590602001918460018302840111600160201b8311171561099a57600080fd5b91908080601f0160208091040260200160405190810160405280939291908181526020018383808284376000920191909152509295949360208101935035915050600160201b8111156109ec57600080fd5b8201836020820111156109fe57600080fd5b803590602001918460018302840111600160201b83111715610a1f57600080fd5b91908080601f0160208091040260200160405190810160405280939291908181526020018383808284376000920191909152509295949360208101935035915050600160201b811115610a7157600080fd5b820183602082011115610a8357600080fd5b803590602001918460018302840111600160201b83111715610aa457600080fd5b91908080601f0160208091040260200160405190810160405280939291908181526020018383808284376000920191909152509295949360208101935035915050600160201b811115610af657600080fd5b820183602082011115610b0857600080fd5b803590602001918460018302840111600160201b83111715610b2957600080fd5b91908080601f0160208091040260200160405190810160405280939291908181526020018383808284376000920191909152509295949360208101935035915050600160201b811115610b7b57600080fd5b820183602082011115610b8d57600080fd5b803590602001918460018302840111600160201b83111715610bae57600080fd5b91908080601f0160208091040260200160405190810160405280939291908181526020018383808284376000920191909152509295949360208101935035915050600160201b811115610c0057600080fd5b820183602082011115610c1257600080fd5b803590602001918460018302840111600160201b83111715610c3357600080fd5b91908080601f016020809104026020016040519081016040528093929190818152602001838380828437600092019190915250929550611ef2945050505050565b61022060048036036020811015610c8a57600080fd5b50356121b3565b6104df61230c565b61017a60048036036040811015610caf57600080fd5b810190602081018135600160201b811115610cc957600080fd5b820183602082011115610cdb57600080fd5b803590602001918460018302840111600160201b83111715610cfc57600080fd5b91908080601f0160208091040260200160405190810160405280939291908181526020018383808284376000920191909152509295949360208101935035915050600160201b811115610d4e57600080fd5b820183602082011115610d6057600080fd5b803590602001918460018302840111600160201b83111715610d8157600080fd5b91908080601f016020809104026020016040519081016040528093929190818152602001838380828437600092019190915250929550612361945050505050565b61017a61266f565b6000546001600160a01b03163314610e17576040805162461bcd60e51b815260206004820152601a60248201526000805160206129d0833981519152604482015290519081900360640190fd5b60006001600160a01b03166004836040518082805190602001908083835b60208310610e545780518252601f199092019160209182019101610e35565b51815160209384036101000a60001901801990921691161790529201948552506040519384900301909220546001600160a01b031692909214159150610edd9050576040805162461bcd60e51b81526020600482015260176024820152764e6f20537563682053747564656e74204578697374732160481b604482015290519081900360640190fd5b60006004836040518082805190602001908083835b60208310610f115780518252601f199092019160209182019101610ef2565b51815160209384036101000a600019018019909216911617905292019485525060408051948590038201909420546001600160a01b031660008181526001928390529490942060070154939450929092149150610fb79050576040805162461bcd60e51b815260206004820152601e60248201527f4170706c69636174696f6e204e6f7420436f6d706c6574656420596574210000604482015290519081900360640190fd5b8115610fe2576001600160a01b03811660009081526001602052604090206003600790910155611003565b6001600160a01b038116600090815260016020526040902060026007909101555b6001600160a01b038116600090815260016020818152604092839020835182815260029182018054948516156101000260001901909416919091049181018290527f03c1f0ac219dbe37dc04d68a7e8bfbc8753e377844955bcec9a6d7f619ed97839390918291820190849080156110bc5780601f10611091576101008083540402835291602001916110bc565b820191906000526020600020905b81548152906001019060200180831161109f57829003601f168201915b50509250505060405180910390a1505050565b600080546060918291829190829081906001600160a01b03163314611129576040805162461bcd60e51b815260206004820152601a60248201526000805160206129d0833981519152604482015290519081900360640190fd5b60006001600160a01b03166004886040518082805190602001908083835b602083106111665780518252601f199092019160209182019101611147565b51815160209384036101000a60001901801990921691161790529201948552506040519384900301909220546001600160a01b0316929092141591506111ef9050576040805162461bcd60e51b81526020600482015260176024820152764e6f20537563682053747564656e74204578697374732160481b604482015290519081900360640190fd5b60006004886040518082805190602001908083835b602083106112235780518252601f199092019160209182019101611204565b518151600019602094850361010090810a82019283169219939093169190911790925294909201968752604080519788900382018820546001600160a01b0316600081815260018085529083902060078101548183018054601f600295821615909b0290980190971683900498890186900486028c018601909452878b52919a50939893810197506003810196509094600582019450600690910192918891908301828280156113145780601f106112e957610100808354040283529160200191611314565b820191906000526020600020905b8154815290600101906020018083116112f757829003601f168201915b5050885460408051602060026001851615610100026000190190941693909304601f8101849004840282018401909252818152959b508a9450925084019050828280156113a25780601f10611377576101008083540402835291602001916113a2565b820191906000526020600020905b81548152906001019060200180831161138557829003601f168201915b5050875460408051602060026001851615610100026000190190941693909304601f8101849004840282018401909252818152959a50899450925084019050828280156114305780601f1061140557610100808354040283529160200191611430565b820191906000526020600020905b81548152906001019060200180831161141357829003601f168201915b5050855460408051602060026001851615610100026000190190941693909304601f8101849004840282018401909252818152959950879450925084019050828280156114be5780601f10611493576101008083540402835291602001916114be565b820191906000526020600020905b8154815290600101906020018083116114a157829003601f168201915b5050845460408051602060026001851615610100026000190190941693909304601f81018490048402820184019092528181529597508694509250840190508282801561154c5780601f106115215761010080835404028352916020019161154c565b820191906000526020600020905b81548152906001019060200180831161152f57829003601f168201915b505050505090509650965096509650965096505091939550919395565b60008054606091906001600160a01b031633146115bb576040805162461bcd60e51b815260206004820152601a60248201526000805160206129d0833981519152604482015290519081900360640190fd5b6000838152600360205260409020546001600160a01b0316611624576040805162461bcd60e51b815260206004820152601860248201527f4e6f205375636820566572696669657220457869737473210000000000000000604482015290519081900360640190fd5b6000838152600360208181526040808420546001600160a01b031680855260028084529482902093840154938501805483516101006001831615026000190190911696909604601f81018590048502870185019093528286529094909360ff1692909184918301828280156116da5780601f106116af576101008083540402835291602001916116da565b820191906000526020600020905b8154815290600101906020018083116116bd57829003601f168201915b505050505091509250925050915091565b600080546001600160a01b03163314611739576040805162461bcd60e51b815260206004820152601a60248201526000805160206129d0833981519152604482015290519081900360640190fd5b506006545b90565b600160208181526000928352604092839020805481840180548651600261010097831615979097026000190190911695909504601f81018590048502860185019096528585526001600160a01b03909116949193929091908301828280156117ea5780601f106117bf576101008083540402835291602001916117ea565b820191906000526020600020905b8154815290600101906020018083116117cd57829003601f168201915b50505060028085018054604080516020601f600019610100600187161502019094169590950492830185900485028101850190915281815295969594509092509083018282801561187c5780601f106118515761010080835404028352916020019161187c565b820191906000526020600020905b81548152906001019060200180831161185f57829003601f168201915b5050505060038301805460408051602060026001851615610100026000190190941693909304601f810184900484028201840190925281815294959493509083018282801561190c5780601f106118e15761010080835404028352916020019161190c565b820191906000526020600020905b8154815290600101906020018083116118ef57829003601f168201915b5050505060048301805460408051602060026001851615610100026000190190941693909304601f810184900484028201840190925281815294959493509083018282801561199c5780601f106119715761010080835404028352916020019161199c565b820191906000526020600020905b81548152906001019060200180831161197f57829003601f168201915b5050505060058301805460408051602060026001851615610100026000190190941693909304601f8101849004840282018401909252818152949594935090830182828015611a2c5780601f10611a0157610100808354040283529160200191611a2c565b820191906000526020600020905b815481529060010190602001808311611a0f57829003601f168201915b5050505060068301805460408051602060026001851615610100026000190190941693909304601f8101849004840282018401909252818152949594935090830182828015611abc5780601f10611a9157610100808354040283529160200191611abc565b820191906000526020600020905b815481529060010190602001808311611a9f57829003601f168201915b5050505050908060070154905088565b336000908152600160205260409020546001600160a01b031615611b215760405162461bcd60e51b81526004018080602001828103825260298152602001806129f06029913960400191505060405180910390fd5b336000908152600260205260409020546001600160a01b031615611b8c576040805162461bcd60e51b815260206004820152601b60248201527f596f752041726520416c72656164792041205665726966696572210000000000604482015290519081900360640190fd5b33600090815260026020818152604090922083519092611bb29284019190850190612937565b508054336001600160a01b0319918216811783556003808401805460ff1916905560078054600090815260209283526040808220805490961690941790945580546001019055815181815285518183015285517f215c31a783ca8b56f83cde8304a6a902eff51735c6ed95d42d81a54b0c99529894879492938493840192908601918190849084905b83811015611c53578181015183820152602001611c3b565b50505050905090810190601f168015611c805780820380516001836020036101000a031916815260200191505b509250505060405180910390a15050565b600260208181526000928352604092839020805460018083015483860180548851601f600019958316156101000295909501909116979097049283018690048602870186019097528186526001600160a01b039092169591949293830182828015611d3d5780601f10611d1257610100808354040283529160200191611d3d565b820191906000526020600020905b815481529060010190602001808311611d2057829003601f168201915b5050506003909301549192505060ff1684565b6000546001600160a01b03163314611d9d576040805162461bcd60e51b815260206004820152601a60248201526000805160206129d0833981519152604482015290519081900360640190fd5b6000818152600360205260409020546001600160a01b0316611e06576040805162461bcd60e51b815260206004820152601760248201527f4e6f205375636820566572696669657220466f756e6421000000000000000000604482015290519081900360640190fd5b6000818152600360208181526040808420546001600160a01b0316808552600280845294829020938401805460ff191660019081179091558251848152948601805460001992811615610100029290920190911695909504928401839052937ffda562e1805568ea4ce9d209a3c1b38dd10b9365f3c9137b0240a9840b111bce939092909182919082019084908015611ee05780601f10611eb557610100808354040283529160200191611ee0565b820191906000526020600020905b815481529060010190602001808311611ec357829003601f168201915b50509250505060405180910390a15050565b336000908152600260205260409020546001600160a01b031615611f5d576040805162461bcd60e51b815260206004820152601c60248201527f596f7520416c7265616479204861766520412056657269666965722100000000604482015290519081900360640190fd5b336000908152600160205260409020546001600160a01b031615611fc8576040805162461bcd60e51b815260206004820152601c60248201527f596f7520416c7265616479204861766520416e204163636f756e742100000000604482015290519081900360640190fd5b33600090815260016020818152604090922088519092611fee92840191908a0190612937565b5085516120049060028301906020890190612937565b50845161201a9060038301906020880190612937565b5083516120309060048301906020870190612937565b5082516120469060058301906020860190612937565b50815161205c9060068301906020850190612937565b5080546001600160a01b0319163390811782556000600783015560405188516004918a91819060208401908083835b602083106120aa5780518252601f19909201916020918201910161208b565b51815160001960209485036101000a0190811690199190911617905292019485525060408051948590038201852080546001600160a01b03979097166001600160a01b03199788161790556006805460009081526005845282812080549098163317909755805460010190558185528b51858301528b517f7e7dd9f583f3c3a3d2a5efa6d2860c40115a578c292e0cbf994267edc2c02686968d969550859450918401928601918190849084905b83811015612170578181015183820152602001612158565b50505050905090810190601f16801561219d5780820380516001836020036101000a031916815260200191505b509250505060405180910390a150505050505050565b600080546060918291829190829081906001600160a01b0316331461220d576040805162461bcd60e51b815260206004820152601a60248201526000805160206129d0833981519152604482015290519081900360640190fd5b6000878152600560205260409020546001600160a01b0316612270576040805162461bcd60e51b81526020600482015260176024820152764e6f20537563682053747564656e74204578697374732160481b604482015290519081900360640190fd5b6000878152600560208181526040808420546001600160a01b031680855260018084529482902060078101548187018054855160026101009a8316159a909a0260001901909116899004601f8101889004880282018801909652858152939790969083019560038401959294918401936006019288918301828280156113145780601f106112e957610100808354040283529160200191611314565b600080546001600160a01b0316331461235a576040805162461bcd60e51b815260206004820152601a60248201526000805160206129d0833981519152604482015290519081900360640190fd5b5060075490565b336000908152600260205260409020546001600160a01b03166123b9576040805162461bcd60e51b815260206004820152601a60248201526000805160206129d0833981519152604482015290519081900360640190fd5b60006001600160a01b03166004836040518082805190602001908083835b602083106123f65780518252601f1990920191602091820191016123d7565b51815160209384036101000a60001901801990921691161790529201948552506040519384900301909220546001600160a01b03169290921415915061247f9050576040805162461bcd60e51b81526020600482015260176024820152764e6f20537563682053747564656e74204578697374732160481b604482015290519081900360640190fd5b60006004836040518082805190602001908083835b602083106124b35780518252601f199092019160209182019101612494565b51815160209384036101000a600019018019909216911617905292019485525060408051948590038201909420546001600160a01b03166000818152600190925293902060070154929350509015905061253e5760405162461bcd60e51b8152600401808060200182810382526025815260200180612a196025913960400191505060405180910390fd5b33600090815260026020908152604080832060019081015482516060810184528781528085018290526001600160a01b03871681850181905286529184528285208186526008018452919093208351805192949391926125a19284920190612937565b506020828101516001830155604092830151600290920180546001600160a01b0319166001600160a01b0390931692909217909155815181815286518183015286517ff035459b4cfde02b609060400206da448ce82b15a74849d011a252df4e5580cb9388938392918301919085019080838360005b8381101561262f578181015183820152602001612617565b50505050905090810190601f16801561265c5780820380516001836020036101000a031916815260200191505b509250505060405180910390a150505050565b336000908152600160205260409020546001600160a01b03166126d9576040805162461bcd60e51b815260206004820152601b60248201527f596f7520446f204e6f74204861766520416e204163636f756e74210000000000604482015290519081900360640190fd5b6126e16127f9565b612732576040805162461bcd60e51b815260206004820152601f60248201527f596f7572204170706c69636174696f6e20497320496e636f6d706c6574652100604482015290519081900360640190fd5b3360009081526001602081815260409283902060078101839055835182815260029182018054948516156101000260001901909416919091049181018290527f6bfbd9607f1060790a41eb85cefa0ef6698a904068df0e40af34b1e0dec1a4f49390918291820190849080156127e95780601f106127be576101008083540402835291602001916127e9565b820191906000526020600020905b8154815290600101906020018083116127cc57829003601f168201915b50509250505060405180910390a1565b336000908152600160205260408120546001600160a01b0316612863576040805162461bcd60e51b815260206004820152601b60248201527f596f7520446f204e6f74204861766520416e204163636f756e74210000000000604482015290519081900360640190fd5b60005b60075481101561292f576040805160008082526020808301808552835190203383526001808352858420878552600801909252918490208054929490930191829184916002918116156101000260001901160480156128fc5780601f106128da5761010080835404028352918201916128fc565b820191906000526020600020905b8154815290600101906020018083116128e8575b505091505060405160208183030381529060405280519060200120141561292757600091505061173e565b600101612866565b506001905090565b828054600181600116156101000203166002900490600052602060002090601f016020900481019282601f1061297857805160ff19168380011785556129a5565b828001600101855582156129a5579182015b828111156129a557825182559160200191906001019061298a565b506129b19291506129b5565b5090565b61173e91905b808211156129b157600081556001016129bb56fe596f7520446f204e6f74204861766520417574686f7269747921000000000000596f7520416c7265616479204861766520416e204163636f756e7420417320412053747564656e7421546865204170706c69636174696f6e20497320416c7265616479205375626d69747465642ea265627a7a72315820c4f9ba6f2215a56c1df9ab1d0dc958d1bba9916f57f27bcacaf2a8c49b896d4064736f6c63430005100032",
  "source": "// SPDX-License-Identifier: Apache-2.0\n//\n// Copyright 2022 Jay Dinesh Mehta\n//\n// Licensed under the Apache License, Version 2.0 (the \"License\");\n// you may not use this file except in compliance with the License.\n// You may obtain a copy of the License at\n//\n// http://www.apache.org/licenses/LICENSE-2.0\n//\n// Unless required by applicable law or agreed to in writing, software\n// distributed under the License is distributed on an \"AS IS\" BASIS,\n// WITHOUT WARRANTIES OR CONDITIONS OF ANY KIND, either express or implied.\n// See the License for the specific language governing permissions and\n// limitations under the License.\n\npragma solidity >=0.5.16;\nimport \"./DocuLibrary.sol\";\n\ncontract DocuNet {\n    address university;\n\n    constructor(address _university) public {\n        university = _university;\n    }\n\n    mapping(address => DocuLibrary.Student) public studentLookup;\n    mapping(address => DocuLibrary.Verifier) public verifierLookup;\n    mapping(uint256 => address) internal verifierAddressLookup;\n    mapping(string => address) internal addressLookup;\n    mapping(uint256 => address) internal indexLookup;\n    uint256 studentCount;\n    uint256 numVerifiers;\n\n    // Sign-up function\n    function addStudent(\n        string memory _passport,\n        string memory _name,\n        string memory _email,\n        string memory _pass,\n        string memory _passportHash,\n        string memory _sopHash\n    ) public {\n        require(\n            verifierLookup[msg.sender].adder == address(0),\n            \"You Already Have A Verifier!\"\n        );\n        require(\n            studentLookup[msg.sender].adder == address(0),\n            \"You Already Have An Account!\"\n        );\n        DocuLibrary.Student storage newStudent = studentLookup[msg.sender];\n        newStudent.passport = _passport;\n        newStudent.name = _name;\n        newStudent.email = _email;\n        newStudent.pass = _pass;\n        newStudent.passportHash = _passportHash;\n        newStudent.sopHash = _sopHash;\n        newStudent.adder = msg.sender;\n        newStudent.status = 0;\n        addressLookup[_passport] = msg.sender;\n        indexLookup[studentCount] = msg.sender;\n        studentCount++;\n        emit StudentCreation(_name);\n    }\n\n    // Check if application is complete\n    function checkApplication() internal view returns (bool) {\n        require(\n            studentLookup[msg.sender].adder != address(0),\n            \"You Do Not Have An Account!\"\n        );\n        for (uint256 i = 0; i < numVerifiers; i++) {\n            if (\n                keccak256(\n                    abi.encodePacked(\n                        (studentLookup[msg.sender].creds[i].hasher)\n                    )\n                ) == keccak256(abi.encodePacked((\"\")))\n            ) {\n                return false;\n            }\n        }\n        return true;\n    }\n\n    // Submit the application\n    function submitApplication() public {\n        require(\n            studentLookup[msg.sender].adder != address(0),\n            \"You Do Not Have An Account!\"\n        );\n        require(checkApplication(), \"Your Application Is Incomplete!\");\n        studentLookup[msg.sender].status = 1;\n        emit ApplicationSubmitted(studentLookup[msg.sender].name);\n    }\n\n    // Add verifiers to the system\n    function addVerifier(string memory _name) public {\n        require(\n            studentLookup[msg.sender].adder == address(0),\n            \"You Already Have An Account As A Student!\"\n        );\n        require(\n            verifierLookup[msg.sender].adder == address(0),\n            \"You Are Already A Verifier!\"\n        );\n        DocuLibrary.Verifier storage newVerifier = verifierLookup[msg.sender];\n        newVerifier.name = _name;\n        newVerifier.adder = msg.sender;\n        newVerifier.approved = false;\n        verifierAddressLookup[numVerifiers] = msg.sender;\n        numVerifiers++;\n        emit VerifierCreation(_name);\n    }\n\n    // Approve verifier\n    function approveVerifier(uint256 _id) public {\n        require(msg.sender == university, \"You Do Not Have Authority!\");\n        require(\n            verifierAddressLookup[_id] != address(0),\n            \"No Such Verifier Found!\"\n        );\n        address _adder = verifierAddressLookup[_id];\n        verifierLookup[_adder].approved = true;\n        emit VerifierApproved(verifierLookup[_adder].name);\n    }\n\n    // Reject or accept student\n    function giveDecision(string memory _passport, bool accepted) public {\n        require(msg.sender == university, \"You Do Not Have Authority!\");\n        require(\n            addressLookup[_passport] != address(0),\n            \"No Such Student Exists!\"\n        );\n        address _adder = addressLookup[_passport];\n        require(\n            studentLookup[_adder].status == 1,\n            \"Application Not Completed Yet!\"\n        );\n        if (accepted) {\n            studentLookup[_adder].status = 3;\n        } else {\n            studentLookup[_adder].status = 2;\n        }\n        emit DecisionMade(studentLookup[_adder].name);\n    }\n\n    // Update Student Credentials\n    function updateCredentials(string memory _passport, string memory _hasher)\n        public\n    {\n        require(\n            verifierLookup[msg.sender].adder != address(0),\n            \"You Do Not Have Authority!\"\n        );\n        require(\n            addressLookup[_passport] != address(0),\n            \"No Such Student Exists!\"\n        );\n        address _adder = addressLookup[_passport];\n        require(\n            studentLookup[_adder].status == 0,\n            \"The Application Is Already Submitted.\"\n        );\n        uint256 _id = verifierLookup[msg.sender].id;\n        studentLookup[_adder].creds[_id] = DocuLibrary.File({\n            hasher: _hasher,\n            description: _id,\n            owner: _adder\n        });\n        emit CredentialsUpdated(_passport);\n    }\n\n    // Get student count\n    function getStudentCount() public view returns (uint256) {\n        require(msg.sender == university, \"You Do Not Have Authority!\");\n        return studentCount;\n    }\n\n    // Get verifier count\n    function getVerifierCount() public view returns (uint256) {\n        require(msg.sender == university, \"You Do Not Have Authority!\");\n        return numVerifiers;\n    }\n\n    // Get student from index\n    function getStudentFromIndex(uint256 _index)\n        public\n        view\n        returns (\n            string memory,\n            string memory,\n            string memory,\n            uint256,\n            string memory,\n            string memory\n        )\n    {\n        require(msg.sender == university, \"You Do Not Have Authority!\");\n        require(indexLookup[_index] != address(0), \"No Such Student Exists!\");\n        address _adder = indexLookup[_index];\n        return (\n            studentLookup[_adder].passport,\n            studentLookup[_adder].name,\n            studentLookup[_adder].email,\n            studentLookup[_adder].status,\n            studentLookup[_adder].passportHash,\n            studentLookup[_adder].sopHash\n        );\n    }\n\n    // Get verifier from index\n    function getVerifierFromIndex(uint256 _index)\n        public\n        view\n        returns (string memory, bool)\n    {\n        require(msg.sender == university, \"You Do Not Have Authority!\");\n        require(\n            verifierAddressLookup[_index] != address(0),\n            \"No Such Verifier Exists!\"\n        );\n        address _adder = verifierAddressLookup[_index];\n        return (verifierLookup[_adder].name, verifierLookup[_adder].approved);\n    }\n\n    // Get student from passport\n    function getStudentFromPassport(string memory _passport)\n        public\n        view\n        returns (\n            string memory,\n            string memory,\n            string memory,\n            uint256,\n            string memory,\n            string memory\n        )\n    {\n        require(msg.sender == university, \"You Do Not Have Authority!\");\n        require(\n            addressLookup[_passport] != address(0),\n            \"No Such Student Exists!\"\n        );\n        address _adder = addressLookup[_passport];\n        return (\n            studentLookup[_adder].passport,\n            studentLookup[_adder].name,\n            studentLookup[_adder].email,\n            studentLookup[_adder].status,\n            studentLookup[_adder].passportHash,\n            studentLookup[_adder].sopHash\n        );\n    }\n\n    //Testing methods\n    // function getUniversity() public view returns (address) {\n    //     return university;\n    // }\n\n    // function showSender() public view returns (address) {\n    //     return (msg.sender);\n    // }\n\n    // function showNull() public view returns (address) {\n    //     return verifierLookup[msg.sender].adder;\n    // }\n\n    event StudentCreation(string name);\n    event VerifierCreation(string name);\n    event VerifierApproved(string name);\n    event CredentialsUpdated(string passport);\n    event ApplicationSubmitted(string name);\n    event DecisionMade(string name);\n}\n",
  "sourcePath": "/Users/jaytwwm/Documents/CSE598/Project/contracts/DocuNet.sol",
  "compiler": {
    "name": "solc",
    "version": "0.5.16+commit.9c3226ce.Emscripten.clang"
  },
  "schemaVersion": "3.4.10",
  "updatedAt": "2022-11-25T23:42:30.134Z",
  "networkType": "ethereum",
  "devdoc": {
    "methods": {}
  },
  "userdoc": {
    "methods": {}
  }
}